:020000040800F2
:100000000000022089060008850600083D9A0008C5
:100010008506000885060008850600080000000027
:10002000000000000000000000000000850600083D
:10003000850600080000000085060008C199000838
:100040008506000885060008850600088506000864
:100050008506000885060008850600088506000854
:10006000850600088506000885060008AD9500088D
:10007000B995000811830008C5950008D1950008BE
:1000800065550108DD8A0008850600088506000818
:100090008506000885060008850600088506000814
:1000A0008506000885060008850600088506000804
:1000B0007D4901088949010895490108118B00080B
:1000C000850600081D8B000885060008ED41010823
:1000D000F941010899530108C5530108F953010872
:1000E0008506000885060008000000008506000857
:1000F00085060008850600088506000885060008B4
:100100008506000885060008A14901080542010886
:100110002D54010861540108850600088506000871
:100120008506000885060008294201085D4201088D
:10013000995501088506000885060008850600080F
:1001400000000000000000000000000000000000AF
:1001500085060008850600088506000895540108F4
:10016000298B000885060008D1990008F599000838
:1001700085060008199A000885060008850600080B
:100180008506000885060008C9540108FD540108C9
:10019000114201081D420108850600088506000875
:1001A0008506000885060008850600088506000803
:1001B000CD9200088506000885060008850600081F
:1001C0008506000885060008C57D0008D17D000869
:1001D00085060008DD7D0008850600088506000804
:1001E00085060008850600088506000885060008C3
:1001F00085060008850600088506000885060008B3
:1002000085060008850600088506000885060008A2
:100210008506000885060008850600088506000892
:100220008506000885060008850600080000000015
:100230008506000885060008000000008506000805
:100240008506000885060008850600088506000862
:100250008506000885060008850600088506000852
:100260008506000885060008850600088506000842
:1002700085060008850600083155010800000000C9
:1002800085060008850600088506000800000000B5
:080290000000000085060008D3
:1002A00010B5054C237833B9044B13B10448AFF3B0
:1002B00000800123237010BDE8030024000000002B
:1002C000A4DE010808B5034B1BB103490348AFF393
:1002D000008008BD00000000EC030024A4DE01083B
:1002E00001F0FF01102A2BDB10F0070F08D010F8E7
:1002F000013B013A8B422DD010F0070F42B3F6D1EB
:10030000F0B441EA012141EA014122F007047FF003
:1003100000070023F0E80256083C85EA010586EA5A
:10032000010685FA47F5A3FA87F586FA47F6A5FA96
:1003300087F68EB9EED1F0BC01F0FF0102F00702A2
:1003400032B110F8013B013A83EA010313B1F8D14D
:100350000020704701387047002D06BF354603382E
:10036000073815F0010F07D1013015F4807F02BF67
:10037000013015F4C03F0130F0BC0138704700BFB8
:1003800053B94AB9002908BF00281CBF4FF0FF31FC
:100390004FF0FF3000F074B9ADF1080C6DE904CEF8
:1003A00000F006F8DDF804E0DDE9022304B0704750
:1003B0002DE9F047089D04468E46002B4DD18A4218
:1003C000944669D9B2FA82F252B101FA02F3C2F14B
:1003D000200120FA01F10CFA02FC41EA030E9440DC
:1003E0004FEA1C48210CBEFBF8F61FFA8CF708FBFD
:1003F00016E341EA034306FB07F199420AD91CEBD5
:10040000030306F1FF3080F01F81994240F21C8106
:10041000023E63445B1AA4B2B3FBF8F008FB10334E
:1004200044EA034400FB07F7A7420AD91CEB040483
:1004300000F1FF3380F00A81A74240F20781644453
:10044000023840EA0640E41B00261DB1D4400023D8
:10045000C5E900433146BDE8F0878B4209D9002D3C
:1004600000F0EF800026C5E9000130463146BDE8C6
:10047000F087B3FA83F6002E4AD18B4202D3824230
:1004800000F2F980841A61EB030301209E46002DDF
:10049000E0D0C5E9004EDDE702B9FFDEB2FA82F234
:1004A000002A40F09280A1EB0C014FEA1C471FFA92
:1004B0008CFE0126200CB1FBF7F307FB131140EA79
:1004C00001410EFB03F0884208D91CEB010103F146
:1004D000FF3802D2884200F2CB804346091AA4B208
:1004E000B1FBF7F007FB101144EA01440EFB00FEDC
:1004F000A64508D91CEB040400F1FF3102D2A64541
:1005000000F2BB800846A4EB0E0440EA03409CE7DF
:10051000C6F12007B34022FA07FC4CEA030C20FA8C
:1005200007F401FA06F31C43F9404FEA1C4900FAAC
:1005300006F3B1FBF9F8200C1FFA8CFE09FB181129
:1005400040EA014108FB0EF0884202FA06F20BD99C
:100550001CEB010108F1FF3A80F08880884240F2EC
:100560008580A8F102086144091AA4B2B1FBF9F030
:1005700009FB101144EA014100FB0EFE8E4508D92B
:100580001CEB010100F1FF346CD28E456AD90238B0
:10059000614440EA0840A0FB0294A1EB0E01A14295
:1005A000C846A64656D353D05DB1B3EB080261EB03
:1005B0000E0101FA07F722FA06F3F1401F43C5E9DD
:1005C000007100263146BDE8F087C2F12003D84013
:1005D0000CFA02FC21FA03F3914001434FEA1C4755
:1005E0001FFA8CFEB3FBF7F007FB10360B0C43EA47
:1005F000064300FB0EF69E4204FA02F408D91CEBF7
:10060000030300F1FF382FD29E422DD902386344F4
:100610009B1B89B2B3FBF7F607FB163341EA034194
:1006200006FB0EF38B4208D91CEB010106F1FF38E3
:1006300016D28B4214D9023E6144C91A46EA0046DA
:1006400038E72E46284605E70646E3E61846F8E66C
:100650004B45A9D2B9EB020864EB0C0E0138A3E7B5
:100660004646EAE7204694E74046D1E7D0467BE796
:10067000023B614432E7304609E76444023842E70E
:10068000704700BFFEE700BF0B480C4A904203D002
:10069000121A0B4917F0DAFD0A480B4A904203D0B0
:1006A000121A002117F0FAFD09F076FC17F09AFDF6
:1006B00004F0A2FCFEE700BF00000024E4030024D5
:1006C000D8DE0108E8030024E4460024704700BF98
:1006D000704700BF704700BF10B50446006818B1EE
:1006E000A168091A17F04FFA204610BD10B504464C
:1006F000D0F8940620B1D4F89C16091A17F043FAE2
:10070000204610BD814255D003682DE9F0410D46C9
:10071000876882B00446FF1AD1E90018A8EB0106E9
:10072000BE420FD84068C21A96422DD888453CD0A8
:100730003246184617F098FD23681E44666002B0E2
:10074000BDE8F081002E36D01D4B9E4235D8304694
:10075000019117F01AFA2368A76805460199FF1A54
:10076000884505D032462846019317F06FFD019B5E
:100770001BB13946184617F006FA2E442560A660CC
:10078000666002B0BDE8F0813AB1184617F06CFD22
:10079000D4E90030D5E90018C21A1144414504D00B
:1007A000A8EB010217F060FD23681E44666002B0EA
:1007B000BDE8F08170473546D2E717F0F7F900BF82
:1007C000FCFFFF7F0F4B2DE9F041561A9E4215D8D2
:1007D00004460D46174630460EB117F0D6F900EB29
:1007E0000608AF422060C4F8088003D0324629468C
:1007F00017F02CFDC4F80480BDE8F081024817F022
:10080000D8F900BFFCFFFF7F94D201082DE9F04723
:10081000D0F80090551A876804460E469046A7EB1C
:100820000907BD4221D9284B9D4249D8002D45D00A
:10083000284617F0AAF9D4F80090A7688246A7EBDB
:100840000907B04504D031462A46504617F0FEFC51
:10085000B9F1000F03D03946484617F094F95544D2
:10086000C4E900A5A560BDE8F0874368A3EB0902D1
:1008700095420CD8884504D02A46484617F0F4FC27
:1008800063684D449D42EED06560BDE8F0878D18E9
:10089000A94203D0484617F0E7FC6368A845A8EBD7
:1008A000050609D018462946324617F0DDFC0346F6
:1008B00033446360BDE8F0870026F9E7AA46C0E745
:1008C000024817F076F900BFFCFFFF7F94D20108C1
:1008D00070B5D0E900450646AC420AD023681846F8
:1008E0007BB1A1680C34C91A17F04DF9A542F5D1B6
:1008F000356825B1B1682846491B17F044F93046E0
:1009000070BD0C34A542E9D13568F2E72DE9F84312
:10091000D0E900678046BE4200F0998040363546F7
:1009200055E904494C450DD023681846002B00F0CA
:100930008180A1680C34C91A17F025F9A145F3D1BB
:1009400055F8109CB9F1000F06D055F8081C484620
:10095000A1EB090117F017F955F81C0C20B155F857
:10096000141C091A17F00FF955E90A494C450CD027
:1009700023681846002B57D0A1680C34C91A17F009
:1009800002F9A145F4D155F8289CB9F1000F06D021
:1009900055F8201C4846A1EB090117F0F4F855E979
:1009A0000D494C450BD023681846BBB3A1680C34E5
:1009B000C91A17F0E8F8A145F5D155F8349CB9F1FA
:1009C000000F06D055F82C1C4846A1EB090117F082
:1009D000DAF855E910494C450BD023681846BBB1ED
:1009E000A1680C34C91A17F0CEF8A145F5D155F815
:1009F000409CB9F1000F24D055F8381C48464035CA
:100A0000A1EB090117F0BFF8B7421ED0403687E7C7
:100A10000C34A145E1D155F8409CEAE70C34A145DE
:100A2000C1D155F8349CCAE70C34A145A0D155F882
:100A3000289CAAE70C34A1457FF476AF55F8109CAA
:100A400080E7B74205F14005E0D1D8F800702FB13A
:100A5000D8F808103846C91B17F095F84046BDE88D
:100A6000F88300BF70B5D0E90C460546B4420BD000
:100A700023681846002B5FD0A1680C34C91A17F000
:100A800082F8A642F4D12E6B26B1A96B3046891BA1
:100A900017F079F8686A18B1E96A091A17F073F85B
:100AA000D5E90646B4420BD023681846002B48D03F
:100AB000A1680C34C91A17F066F8A642F4D1AE69E1
:100AC00026B1296A3046891B17F05DF8D5E903463F
:100AD000B4420AD0236818464BB3A1680C34C91A33
:100AE00017F051F8A642F5D1EE6826B16969304693
:100AF000891B17F048F8D5E90046B4420AD02368AC
:100B000018467BB1A1680C34C91A17F03CF8A6420C
:100B1000F5D12E6826B1A9683046891B17F033F845
:100B2000284670BD0C34A642E9D12E68F2E70C3499
:100B3000A642CFD1EE68D8E70C34A64298D12E6BEE
:100B4000A2E70C34A642AFD1AE69B9E72DE9F04F68
:100B50008368A2EB0109056883B007460C465B1B5E
:100B6000164699455ED9844B994500F20281B9F148
:100B7000000F00F0F980484617F007F80190A642F0
:100B800031D0019B0C3403F10C050023A04654E93D
:100B9000031245E90333B2EB010B45F8043C00F0C6
:100BA000D080764B9B4500F2E280584616F0EDFF70
:100BB000034654E90312A2EB010A03EB0B00914236
:100BC00045E9033345F8040C00F0B080184652465E
:100BD00017F04AFB03460C354645534404F10C0418
:100BE00045F8143CD1D1D7E90045AC420BD0206880
:100BF000002800F09580A1680C34091A16F0C3FF94
:100C0000A542F4D13D6825B1B9682846491B16F0C4
:100C1000BAFF019A13464B44C7E90023BB6003B0F7
:100C2000BDE8F08FD0F80480A8EB050399452BD8D8
:100C3000B9F1000F17DD4FEAA906514BA84603FB97
:100C400006F621464046FFF75DFD013E04F10C0427
:100C500008F10C08F5D1B9F1000FD7F80480D8BF1E
:100C60004FF00C094D44A845D9D02C4620680028E7
:100C700076D0A1680C34091A16F085FF4445F5D1E9
:100C80007D6003B0BDE8F08F4FEAA3093C4A002B1A
:100C900001EB030A02FB09F90CDD21462846FFF7A8
:100CA00031FDB9F1010904F10C0405F10C05F4D191
:100CB000D7F8048056452ED00AF10C0A08F10C042E
:100CC0000023D146A0465AE9032544E90333AD1A6F
:100CD00044F8043C42D0294B9D4248D8284616F09F
:100CE00054FF03461D4444E9033344F8045C5AE9C5
:100CF00003129142A2EB010526D018462A4617F0AE
:100D0000B3FA03464E450AF10C0A2B4404F10C04D5
:100D100044F8143CD4D1C7F8048003B0BDE8F08F88
:100D20000C34A5427FF463AF3D686CE753444645FD
:100D300005F10C0504F10C0445F8143C7FF425AFD3
:100D400051E7DA465B4638E72B444E450AF10C0A78
:100D500004F10C0444F8143CB2D1DCE72B46C1E7A3
:100D60000C34A04582D18BE7CDF8049007E716F04C
:100D70001DFF044816F01DFFF8FFFF7FFCFFFF7FFB
:100D8000ABAAAAAA94D20108814200F09B802DE967
:100D9000F84FD1E90048066807468368A8EB0409C4
:100DA0008A469B1B4B4530D34568AB1B994519467A
:100DB00000F28980B9F1000F16DD4FEAA905764BE4
:100DC000B04603FB05F521464046FFF79BFC013D7D
:100DD00004F10C0408F10C08F5D1B9F1000F7D689D
:100DE000CCBF4B460C231E44AE4209D030680028CD
:100DF00066D0B1680C36091A16F0C5FEAE42F5D1C0
:100E00003E684E447E60BDE8F88FB9F1000F00F0F7
:100E1000AB80624B994500F2BC80484616F0B5FEA7
:100E20008346A0452FD00C340BF10C050023A246BD
:100E300054E9032645E90333B61A45F8043C00F0AB
:100E4000A480574B9E4200F2A480304616F09DFECF
:100E500003461E4445E9033345F8046C54E9031284
:100E60009142A2EB010600F085801846324617F049
:100E7000FBF90346D04504F10C04334405F10C059D
:100E800045F8143CD2D1D7E90045AC420AD02068DD
:100E900000286BD0A1680C34091A16F074FEA54224
:100EA000F5D13D6825B1B9682846491B16F06BFE9F
:100EB0000BEB0906C7F800B0BE607E60BDE8F88F96
:100EC0000C3691E77047002B12DD9B10324D03FB6F
:100ED00005F521463046FFF715FC013D04F10C04F1
:100EE00006F10C06F5D1D7E90065DAE90048A91B3F
:100EF0000C4444454BD00C340C350023A24654E935
:100F0000032645E90333B61A45F8043C2AD0244B9E
:100F10009E423ED8304616F038FE03461E4445E950
:100F2000033345F8046C54E903129142A2EB010625
:100F30000ED01846324617F097F90346C24504F121
:100F40000C04334405F10C0545F8143CD5D157E7A2
:100F50003344C24504F10C0405F10C0545F8143C7A
:100F6000CBD14DE73346D9E7CB465AE70C34A542FF
:100F70008DD196E73344D04504F10C0405F10C05FE
:100F800045F8143C7FF452AF7DE7334661E74E44A9
:100F900038E716F00BFE00BFABAAAAAAF8FFFF7F46
:100FA000FCFFFF7F2DE9F04F82463B4889462DED3F
:100FB000108B8FB00192CDF808A006F05BFE374B86
:100FC000F0EE409A1A784AB100221A70344B1C781D
:100FD00084F001041C70002C00F0B786019B73B3F1
:100FE0002F4B00270393039B1B786BBB029BBE0018
:100FF0002C4A1B68127803EB8703D3ED008A69EE55
:10100000A88A002A58D1F0EEE86A9FED277A274B8C
:10101000DFED287AF4EEC76A1B78F1EE10FA88BF8C
:10102000F0EE678A7BBB0137D9E9002333443244B1
:10103000C2ED008AC3ED008A019BBB42D3D10FB041
:10104000BDEC108BBDE8F08F029B791C1D68D9E9BF
:10105000000405EB870200EB8703126804EB8706A8
:1010600032601A60019B8B42E9D005EB810304EBEF
:1010700081021B68136000EB810201311360019B48
:101080008B42F2D8DBE7B0EE680A094804F0A0FF13
:10109000F0EE408AC7E700BF040400243C060024A9
:1010A0000400002406000024FFFF7F7F05000024C9
:1010B00038080024000000005FED027AF0EE686A54
:1010C000DFF81CB3B0EE676ADBED101A0BF5BF63F7
:1010D0009BED607A0BF58478DBED695A0BF5AB6517
:1010E000A1EE876A9BED112AB0EE677A9BED614A0B
:1010F000DBED6A4A0BF59674DBED122AA1EEA57AB8
:101100009BED625ADBED6B5AA2EE046A9BED133A3B
:101110009BED638A9BED6C0ADBED143AA2EE247A18
:10112000DBED640ADBED6DBAA2EE856A9BED154A34
:101130009BED651A9BED6EAADBED164AA2EEA57A31
:101140009BED66BADBED6FAAA3EE086A9BED175A1A
:101150009BED679A9BED708ADBED185AA3EE007A3F
:101160009BED680ACBED008AA3EEA06ADBED710A65
:10117000A3EEAB7ADBED72BAA4EE016AB0EE671AA9
:10118000A4EE0A7A9BED73AAA1EEAB1AA4EE8B6AC9
:10119000A4EEAA7AA2EE0A1AA5EE096AA5EE087ACA
:1011A000A5EE806AA5EEA07A83ED006AB0EE676ACC
:1011B00083ED017ADBED740A9BED7B7A9BED840A6B
:1011C000A2EEA01AA1EE876ADBED7CAAB0EE677AE8
:1011D0009BED85AA9BED7D9A9BED868AA1EE807A98
:1011E000DBED750A9BED7E0AA2EE2A6A9BED87BABB
:1011F000A3EE201ADBED76BADBED7FAADBED770AF2
:10120000A2EE0A7A9BED88AA9BED8DCAA2EE896AAE
:101210009BED809AA3EEAB1ADBED78BAA2EE887A4A
:101220009BED898AA3EE006A9BED810AA4EE201A49
:10123000DBED790AA3EE0B7A9BED8ABAA3EEAA6ADC
:10124000DBED82AAA4EEAB1ADBED7ABAA3EE8A7AC2
:101250009BED8BAAA4EE096A9BED839AA5EE201A5A
:10126000F0EE670AA4EE087A9BED8C8AE1EE8C0A18
:10127000A4EE806A9BED8E0AA5EEAB1AA4EE8B7AE3
:101280009BED8FBAE2EE000A9BED900AA5EE2A6A6A
:1012900083ED021AA5EE0A7AE2EE8B0AA5EE896AC0
:1012A000A5EE887AE3EE000A83ED036AB0EE676A82
:1012B00083ED047A9BED919A9BED967A9BED9F1AB4
:1012C000A1EE876A9BED978AB0EE677ADBEDA0BA54
:1012D0009BED98AA9BEDA1BAA1EE817ADBED99AACC
:1012E0009BEDA21AA2EE086A9BED9A0A9BEDA38AD7
:1012F0009BEDABCAA2EE2B7ADBEDA8BAEBEEA17A9E
:10130000DBEDA9BAF0EE601ADBED9B0AA2EE8A6A69
:101310009BEDA4AAE3EE891A9BED929AA2EE8B7A3A
:101320009BED93BAEBEE827ADBED94BAA3EE2A6AD8
:10133000DBED9CAAB0EE612ADBED9D1AA3EE017AEB
:101340009BEDAA1AA4EE092A9BEDA59AA3EE806A4A
:101350009BEDA60AE1EE227A9BED951AA3EE887A20
:101360009BEDAC8AF0EE422A9BED9E2AA4EE206A09
:10137000DBEDAD0AECEE037AE4EE8B2AA4EE0A7AFA
:10138000A4EEAA6AE8EE237AB0EE623ADBEDA72A71
:10139000A4EE897AA5EE2B3AA5EE216AE0EE847AD6
:1013A000A5EE007AF0EE433AA5EE826AE5EE813AC8
:1013B000A5EEA27A83ED066AC3ED053A83ED077ABE
:1013C0009BEDAE4A9BEDAF6AE4EE247A9BEDB07ADA
:1013D000E6EE057AE7EE257AC3ED087A06E000BF6F
:1013E0007808002400000000DBED006A2B46B8EC12
:1013F000017A043593ED000AD3ED287A77EE807AEE
:10140000E7EE267AB1EE670A16F0E0FBB7EE007A57
:10141000444570EE077AC7EE276AC5ED276AE3D127
:101420005FED107A9BED102AF0EE676A9BEDB27AC1
:101430009BEDBB6ADBED112AE2EE076ADBEDB35AE6
:10144000B0EE677A9BED123A9BEDB49ADBEDBD0AE4
:10145000A2EE067A9BEDBC6ADBED133AE5EEA26ADA
:101460009BEDB58A9BEDBE1A9BED144ADBEDB6BA37
:10147000A2EE867A9BEDBFAADBED154AE9EE036A80
:101480009BEDB70ADBEDC01A9BED165A9BEDB8BA7F
:10149000A3EE207ADBEDC1AADBED175AE8EE236A52
:1014A0009BEDB99A9BEDC28A9BED186ADBEDBA0AF7
:1014B000A3EE817A9BEDC31AFB4CE4EE2B6ADBEDC5
:1014C000C4BAA4F50872A4F59E6AA4F1A008A4F217
:1014D000CC45A4EE0A7A9BEDC5AAE4EE806A9BEDAA
:1014E000C60AA4EEA17AF0EE671AE5EE0B6AE2EE08
:1014F0002B1AA5EE2A7AE9EE256AE2EE8A1AA5EE03
:10150000887AE0EE866AE3EE001AA6EE017AC4ED70
:10151000006AF0EE676A84ED017A9BEDC71A9BEDD5
:10152000CD7ADBEDD60AE3EE811AE2EE076A9BED97
:10153000D78AB0EE677ADBEDCEBA9BEDD8BA9BEDD9
:10154000CF9AA2EE207A9BEDC81A9BEDD9AAE2EEC3
:10155000AB6ADBEDD0AAE4EE011A9BEDC90ADBED24
:10156000DABADBEDD10AA2EE887A9BEDCB1A9BEDBD
:10157000D28AE3EE096A9BEDDB9AE4EE801A9BEDDA
:10158000DFCA9BEDDC0AA3EE0B7A9BEDCABAE3EE51
:10159000AA6ADBEDD3AAE5EE0B1A9BEDDDBAA3EE4A
:1015A0008A7A9BEDD4AAE4EE206ADBEDCC0AE5EE64
:1015B000811AB0EE671AA4EE2B7ADBEDE0BAA2EE48
:1015C0000C1AE4EE886A9BEDDE8AE6EE201ADBED6B
:1015D000E30AA4EE897A9BEDD59AA2EEAB1AE5EE6A
:1015E0002A6ADBEDE1AAC4ED021AA5EE007A9BEDB2
:1015F000E20AF0EE411AE5EE8A6AE3EE2A1AA5EE57
:101600008B7AE6EE096AE3EE801AA6EE087AC4ED5C
:10161000036AE4EE201A84ED047AB0EE677A9BED5B
:10162000E40ADBEDE86A9BEDF11AA2EE267ADBED27
:10163000E9BAF0EE676A9BEDF29A9BEDEA8AE4EE76
:10164000801A9BEDFABAE2EE016ADBEDF3AAEBEE4B
:10165000027A9BEDEBAAA2EEAB7A9BEDFBBA9BED77
:10166000EC1ADBEDF4BA9BEDFC2AE2EE896ADBEDC5
:10167000ED0AEBEE227A9BEDF59AA3EE087ADBED0C
:10168000FDCA9BEDF68A9BEDE5CA9BEDEE0AE3EE03
:101690002A6A9BEDFEBAE2EE037ADBEDEF2AA3EEB7
:1016A0008A7A9BEDF72ADBEDE6AA9BEDF83A9BEDF3
:1016B000E7AAE3EEAB6ADBEDFFBAECEEA37AA4EEA9
:1016C000017A9BEDF01AF0EE613ADBEDF91AE4EEE7
:1016D000096AE5EE0C3AA4EEA07AEBEE047AE4EEA9
:1016E000886AB0EE634AA5EE007AEBEEA47AA5EE26
:1016F000AA4AE5EE026AA5EEA27AF0EE444AE5EEC9
:10170000836AE6EE0A4AA6EE017AE6EE216AC4EDA5
:10171000054A84ED067A92ED007AA4F50772E7EEA9
:10172000057AC4ED076A92ED007AA4F50672E7EE39
:10173000257A92ED007AE7EE067AC4ED087A434600
:10174000FAEC016A9BED007AB7EE008A93ED000A8D
:1017500008F10408D3ED287A77EE807AE6EE877AEE
:10176000B1EE670A16F032FA70EE087AAA4588EEF2
:10177000277A88ED277AE2D1DFED4C7A4C4DF0EEF6
:10178000676A9BED10CAF0EE67AA95ED006A95EDC9
:10179000097AB0EE67AAE6EE0C6ADBED11BAE7EE65
:1017A0000CAA95ED014AD5ED0A2A9BED12BA95EDEA
:1017B000023AD5ED0B4AE4EE2B6A9BED13FAE2EE0A
:1017C000ABAA95ED036AD5ED0C5ADBED14EA95ED65
:1017D000047A95ED0D5AE3EE0B6A9BED15EAE4EE03
:1017E0008BAAD5ED053AD5ED0E2ADBED16DA95ED8F
:1017F0000F4A95ED063AE6EE0F6A9BED17DAE5EE35
:101800008FAAD5ED074AD5ED105A95ED122ADBEDDA
:1018100018CA95ED086AE7EE2E6A95ED117AE5EEA5
:101820002EAAB0EE675AA2EE0C5AE3EE8E6AD5ED00
:10183000143AE2EE8EAAD5ED132AA2EEAB5AE3EEED
:101840002D6AE4EE2DAAA3EE8B5AE4EE8D6AE5EE46
:101850008DAAE6EE2C6AE7EE2CAAB0EE676AC5ED1B
:101860008E6AC5ED8FAAD5ED155A95ED1B7AD5ED8B
:10187000243AA5EE8F5AA7EE0C6A95ED254AB0EEF4
:10188000677AD5ED1C4A95ED1D2AD5ED272AACEED9
:10189000237AD5ED263A95ED1E3AA4EEAB6AD5ED46
:1018A000175AD5ED284A05E0980E002400000000E4
:1018B000880C0024ABEE847A95ED164AA2EE0B6AF2
:1018C00095ED2D2AA4EE2E5A95ED1F4AABEE237A04
:1018D000D5ED203AA3EE0F6A95ED293AA5EE8E5A82
:1018E000D5ED195AAFEE227AD5ED182AA4EE2E6A5C
:1018F00095ED2A4AA2EEAD5AD5ED222AAEEEA47A93
:10190000D5ED214AA3EE8E6AD5ED233AA5EE8D5A88
:10191000F0EE675AAEEE037A95ED2B3AECEE025AF2
:10192000ADEEA46AD5ED1A4AA4EEAC5AD5ED2F4A15
:10193000ADEE847A95ED2C4AADEE226AD5ED302AD3
:1019400085ED905A8DED085AADEE037A95ED2E3A5D
:10195000E3EE2B5A95ED313AACEEA36AACEE847A05
:10196000E4EE8B5AF0EE674A85ED916A8DED076AD9
:10197000D5ED361A95ED372AE1EE8C4AD5ED323A9F
:10198000E2EE8F5A95ED334AD5ED3F2A85ED927AF6
:10199000ACEE22AAD5ED412A8DED067AE2EE2B4A75
:1019A00095ED382AE3EE2E5A95ED343AE2EE0B4AE5
:1019B000E3EE8E5AD5ED403AA3EEABAAD5ED353A1B
:1019C000E4EE2D5A95ED394AE4EE0F4A95ED3A4A88
:1019D000A2EE8BAAD5ED482AE2EE8C7AE3EE0D5A00
:1019E00095ED3D3AE4EE2E4A95ED3B4AB0EE679A0E
:1019F000E3EEAC5AD5ED3E3AE4EE0E4A95ED3C4AA4
:101A0000C5ED935ACDED055AE4EE2D4A95ED424AC7
:101A1000A4EE0FAA95ED434AF0EE647AD5ED4A4A5A
:101A2000A4EE2EAA95ED444AE3EE0D7A95ED493ADF
:101A3000A3EE2B9AA4EE0EAA95ED454AE3EEAC7AFE
:101A4000D5ED4B3AA4EE8B9AD5ED4C4AA4EE2DAAD7
:101A500095ED464AC5ED947ACDED047AA3EE8F9AC2
:101A6000A4EE0DAA95ED474AD5ED4E3A95ED660ADE
:101A7000A4EEAE9AD5ED4D4ADBED00FAA4EE2CAA09
:101A800095ED504AA4EE8E9AD5ED4F4A85ED95AA74
:101A9000A3EEAD9AD5ED703A76EEA36AA4EE8D9AD8
:101AA000D4ED004AA4EEA60ADBED566AA4EE2C9A09
:101AB000A6EEAF0A85ED969A16F05EF9D5ED714A5D
:101AC000D4ED016A7AEEA4AA85ED980A8DED090A93
:101AD00095ED670AA6EEAA0ADBED576AAFEEA60AF5
:101AE00016F04AF9D5ED723A9DED085AD4ED026A26
:101AF00035EE235A85ED990A8DED080A95ED680AB1
:101B0000A6EE850ADBED586AAFEEA60A16F034F9A8
:101B1000D5ED733A9DED076AD4ED036A36EE236A7C
:101B200085ED9A0A8DED070A95ED690AA6EE860AFB
:101B3000DBED596AAFEEA60A16F01EF9D5ED743A40
:101B40009DED067AD4ED046A37EE237A85ED9B0A83
:101B50008DED060A95ED6A0AA6EE870A9BED5A7A84
:101B6000AFEE870A16F008F9D5ED756ADDED055A76
:101B7000F0EE40AA94ED057A75EEA65A85ED9C0A22
:101B800095ED6B0AA7EE250A9BED5B7AAFEE870A0F
:101B900016F0F2F8D5ED765ADDED047AD4ED066A4A
:101BA00077EEA57A85ED9D0A8DED050A95ED6C0A17
:101BB000A6EEA70ADBED5C7AAFEEA70A16F0DCF81A
:101BC000D5ED776AD4ED077A3AEE26AA85ED9E0A1E
:101BD0008DED040A95ED6D0AA7EE8A0ADBED5D7ABC
:101BE000AFEEA70A16F0C8F8D5ED786AB0EE40AAB5
:101BF000D4ED087A39EE269A95ED6E0A85ED9FAA06
:101C0000A7EE890ADBED5E7AAFEEA70A16F0B4F80C
:101C100095ED7C2A95ED7B1A22EE0BBAD5ED7A1A5A
:101C200038EE422AD5ED7D2A95ED7E3A21EE8CCA1A
:101C3000D5ED7F3A78EE611A85EDA00A61EE2BBAF8
:101C4000D5ED807A9DED075ADDED045AA2EE05BA76
:101C50009DED094A38EE675A9DED066A67EEAD7A4A
:101C6000DDED084AA1EE84CADBED091A38EE622ADE
:101C70009DED057AE5EE257A9BED0C5A62EE8F2AF2
:101C8000DBED0D5A38EE414A9BED071A4F4AE2EE62
:101C9000062A9BED066AE4EE24BA9BED082AF0EED4
:101CA00067DACBED167ADBED057A38EE434A23EEA0
:101CB0002E3A8BED10CAE6EE0C7A9BED0E6A78EEAA
:101CC000634A8BED12BAA4EE2A3A9BED0A4A63EE00
:101CD0008E3ACBED11BACBED132AE1EE2B7AE4EE7E
:101CE000873ADBED0B4A95ED817A8BED143A78EE6D
:101CF000470A27EE0DDA95ED827AE2EE0B7A38EE9E
:101D0000478ACBED153AA0EE8ADA67EE2CCA92ED3F
:101D1000007AE1EEA27AE8EE00CA8BED17DAE4EE83
:101D2000037ACBED18CAE4EEA37AE5EE2D7AE5EE60
:101D30008D7AE6EE2C7A78EEA78ACBED047ACBED9D
:101D4000027A68EE878AFFF75EB92146242220488E
:101D500016F0A4FA1F4B002000211E681E4B1D68C0
:101D600005EB4505AF0006EB8505F2596B680C9451
:101D70009C1ACDE90A0125D0184B9C4224D8204654
:101D800015F003FF03461C440A93CDE90B34F159C7
:101D90006A689142A2EB010404D01846224616F06C
:101DA00063FA034623440E480AA90B9304F052FA3F
:101DB0000A9800283FF412A90C99091A15F0E3FEBD
:101DC000FFF70CB92346DEE715F0F0FE3C0F0024C8
:101DD000B8080024E00700246C080024FCFFFF7F03
:101DE000380800242DE9F84FD1E9002400230F46DC
:101DF000A41A06468360C0E9003300F07C81C44B1E
:101E00009C4200F28281204615F0BFFE81464C4480
:101E1000C6E90099B460D7E9003A534530D003F1E0
:101E20000C0B09F10C040023D846A1465BE90325FD
:101E300044E90333AD1A44F8043C00F05481B54B37
:101E40009D4200F26281284615F09FFE03461D4424
:101E500044E9033344F8045C5BE903129142A2EBCA
:101E6000010500F0158118462A4616F0FDF90346D3
:101E70000C34C2452B440BF10C0B44F8143CD2D16A
:101E8000FA680023C6F804903C697361A41AC6E995
:101E9000033300F032819E4B9C4200F23681204693
:101EA00015F073FE81464C44C6E903997461D7E985
:101EB000033A534530D003F10C0B09F10C04002315
:101EC000D846A1465BE9032544E90333AD1A44F83B
:101ED000043C00F00A818F4B9D4200F21681284697
:101EE00015F053FE03461D4444E9033344F8045CF3
:101EF0005BE903129142A2EB010500F0D480184681
:101F00002A4616F0B1F903460C34C2452B440BF1B6
:101F10000C0B44F8143CD2D1BA690023C6F81090D7
:101F2000FC693362A41AC6E9063300F0E880784BF6
:101F30009C4200F2EA80204615F027FE81464C4480
:101F4000C6E906993462D7E9063A534530D003F121
:101F50000C0B09F10C040023D846A1465BE90325CC
:101F600044E90333AD1A44F8043C00F0C080694BE7
:101F70009D4200F2CA80284615F007FE03461D4424
:101F800044E9033344F8045C5BE903129142A2EB99
:101F9000010500F0938018462A4616F065F90346BD
:101FA0000C34C2452B440BF10C0B44F8143CD2D139
:101FB0000023D7E90924C6F81C90A41AF362C6E9E5
:101FC000093300F09E80534B9C4200F29E802046D5
:101FD00015F0DBFD03461C44C6E90933F462D7E97A
:101FE00009108142A0EB010504D018462A4616F0DC
:101FF0003BF903467C6B2B443A6BB3620023A41A73
:10200000B363C6E90C337ED0414B9C427DD8204659
:1020100015F0BBFD81464C44C6E90C99B463D7E981
:102020000C3A53452DD003F10C0B09F10C0400239D
:10203000D846A1465BE9032544E90333AD1A44F8C9
:10204000043C56D0334B9D425FD8284615F09DFD89
:1020500003461D4444E9033344F8045C5BE903127E
:102060009142A2EB010534D018462A4616F0FCF83E
:1020700003460C34C2452B440BF10C0B44F8143CC2
:10208000D5D1FB6B3046C6F83490F363BDE8F88FCA
:102090002B44C24504F10C040BF10C0B44F8143C26
:1020A0007FF4C1AEECE62B44C24504F10C040BF105
:1020B0000C0B44F8143C7FF402AF2DE72B44C245CF
:1020C00004F10C040BF10C0B44F8143C7FF443AF07
:1020D0006EE72B44C24504F10C040BF10C0B44F8E1
:1020E000143CA4D1CDE72B46B1E62B46FBE62B46AC
:1020F00045E72B46ADE7A14689E6A146D3E6A146D2
:102100001DE7234667E7A14685E715F04FFD00BFB1
:10211000F8FFFF7FFCFFFF7F2DE9F04FADF20C7D54
:10212000CF496C22002531A8DFF8748316F08EF8B1
:10213000002300226C200495CDE9022315F025FD33
:1021400004466C2231A96C340290049416F07EF897
:10215000D8F808300394D8F800401B1B0B2B02F270
:1021600001820C2015F011FD06468560C0E900557E
:10217000DDE90210441A02F0A584BA4B9C4202F237
:10218000E884204615F001FD0346DDE90210451AFA
:102190001C448842B460C6E9003304D018462A467D
:1021A00016F062F803462B4406F10C07D8E9004507
:1021B0007360AC420CD02068002802F0DD80A1687A
:1021C0000C34091A15F0DFFCA542F4D1D8F8005000
:1021D0002DB1D8F808102846491B15F0D4FCC8F8D2
:1021E0000870C8E90067029818B10499091A15F037
:1021F000CAFC4CAC00274FF0000A4FF0000B6C22D9
:10220000994968A80DF5A16516F020F8A7606C2023
:1022100067AECDE94CAB15F0B8FC00F16C096C224F
:1022200068A9C4F80890206016F010F86C228F4955
:1022300083A8C4F8049016F009F867616C20C4E91B
:10224000037715F0A2FC00F16C096C2283A9C4F895
:102250001490E06015F0FAFF6C2285499EA8C4F83E
:10226000109015F0F3FF6C20CDE952AB276215F00A
:102270008CFC00F16C096C229EA9C4F82090A0612E
:1022800015F0E4FF6C227B49B9A8C4F81C9015F046
:10229000DDFFE7626C20C4E9097715F076FC00F1F8
:1022A0006C096C22B9A9C4F82C90606215F0CEFFBD
:1022B0006C227149D4A8C4F8289015F0C7FF6C208F
:1022C000CDE958ABA76315F060FC00F16C096C22F6
:1022D000D4A9C4F83890206315F0B8FF6C22674980
:1022E000EFA8C4F8349015F0B1FF67646C20C4E91E
:1022F0000F7715F04AFC00F16C096C22EFA9C4F8C5
:102300004490E06315F0A2FF6C225D490DF58560F5
:10231000C4F8409015F09AFF6C20CDE95EAB2765BC
:1023200015F033FC00F16C096C220DF58561C4F8E1
:102330005090A06415F08AFF6C2252490DF593600D
:10234000C4F84C9015F082FFE7656C20C4E915775E
:1023500015F01BFC00F16C096C220DF593616065B2
:10236000C4F85C9015F072FF6C2247492846C4F807
:10237000589015F06BFF6C20CDE964ABA76615F0A3
:1023800004FC07466C2229466C372066A76615F0C8
:102390005DFF324621463D486766FEF7D7FB56F89B
:1023A0000C0D002801F0A487B168091A15F0EBFBA9
:1023B000A642F4D1002300220DF59361DFF8E4C0BA
:1023C000CDF8A03400232E460DF5A567C1E9002302
:1023D000BCE80F000FC6BCE80F000FC6DCF80030E9
:1023E0002420336015F0D1FBAE4600F124090646E7
:1023F000CDF89804CDF8A094F44610360EF1100EE6
:10240000BCE80F00BC4546F8100C46F80C1C46F81A
:10241000082C46F8043CEFD1DEF800000DF593617E
:102420000DF2A44230601A48CDF89C94FEF78EFB62
:10243000DDF8980420B1DDF8A014091A15F0A3FB0B
:10244000144B0DF20C52294613482B604FF0000933
:10245000FEF7DCF96C2211490DF5936024E000BF12
:10246000D4950108FCFFFF7F40960108AC96010857
:102470001897010884970108F09701085C980108F3
:10248000C898010834990108A0990108480400245B
:1024900054040024E9B08E3D60040024309A010801
:1024A0003C0400240C9A010815F0D0FE0023002201
:1024B0000DF58561CDF830946C20C1E9002315F04D
:1024C00064FB06466C220DF593616C36CDF828044A
:1024D000CDF8306415F0BAFE6C22D6492846CDF806
:1024E0002C6415F0B3FE6C20CDF83494CDF83894FC
:1024F000CDF83C9415F049FB06466C222946CDF8F0
:1025000034046C36CDF83C6415F0A0FECA480DF5D5
:1025100088620DF58561CDF83864FEF717FBDDF8AC
:10252000340420B1DDF83C14091A15F02CFBDDF859
:10253000280420B1DDF83014091A15F024FBBF4B34
:102540006C22BF492046C8F83C304FF0000915F016
:102550007DFE002300226C20CDF82090CDE90623DB
:1025600015F013FB06466C2221466C360690089641
:1025700015F06CFEB34B07961E689B689B1B0B2BDC
:1025800001F2CB870C2015F000FB8046C0F80890C4
:10259000DDE90612C0E90099561A02F0D282AA4B70
:1025A0009E4202F2D682304615F0EFFA0346DDE98C
:1025B0000612A2EB01091E448A42C8F80860C8E965
:1025C000003304D018464A4615F04EFE03464B44ED
:1025D00008F10C09C8F804309A4BD3E9006A564553
:1025E0000DD03068002801F0CF86B1680C36091A8A
:1025F00015F0C9FA5645F4D1924BD3F800A0BAF1C0
:10260000000F06D08F4B50469968A1EB0A0115F0D8
:10261000BAFA8C4BC3E90089C3F80890069818B140
:102620000899091A15F0AFFA16AE4FF000084FF0EE
:10263000000A4FF0000B6C22844968A815F006FED2
:10264000C6F808806C20C6E900AB15F09EFA00F1D0
:102650006C096C2268A9C6F80890306015F0F6FD88
:102660006C227B4983A8C6F8049015F0EFFDC6F8EC
:1026700014806C20C6E9038815F087FA00F16C0914
:102680006C2283A9C6F81490F06015F0DFFD6C226F
:1026900070499EA8C6F8109015F0D8FDC6F82080A5
:1026A0006C20C6E906AB15F070FA00F16C096C22DB
:1026B0009EA9C6F82090B06115F0C8FD6C2266494D
:1026C000B9A8C6F81C9015F0C1FDC6F82C806C2086
:1026D000C6E9098815F059FA00F16C096C22B9A90C
:1026E000C6F82C90706215F0B1FD6C225B49D4A83D
:1026F000C6F8289015F0AAFDC6F838806C20C6E907
:102700000CAB15F042FA00F16C096C22D4A9C6F8A2
:102710003890306315F09AFD6C225149EFA8C6F845
:10272000349015F093FDC6F844806C20C6E90F88FC
:1027300015F02BFA00F16C096C22EFA9C6F8449051
:10274000F06315F083FD6C2246490DF58560C6F8EF
:10275000409015F07BFDC6F850806C20C6E912ABA6
:1027600015F013FA00F16C096C220DF58561C6F8BD
:102770005090B06415F06AFD6C223B490DF59360F2
:10278000C6F84C9015F062FDC6F85C806C20C6E976
:10279000158815F0FAF900F16C096C220DF59361BA
:1027A0007065C6F85C9015F051FD6C222F492846E3
:1027B000C6F8589015F04AFDC6F868806C20C6E946
:1027C00018AB15F0E2F900F16C086C222946C6F846
:1027D0006880306615F03AFD1A4BC6F86480D3F86D
:1027E0000C805B69A3EB08036B2B01F2DC866C2089
:1027F0000DF1640A15F0C9F9034600F10C080190C7
:102800007833009300235AE9031248E90333B2EB0B
:10281000010948F8043C01F07C860B4B994502F213
:102820009881484615F0B1F903465AE90312A2EB24
:10283000010B1DE09C9A01086C0400246666663F4B
:10284000089B01087C040024FCFFFF7F749B0108A7
:10285000E09B01084C9C0108B89C0108249D0108DC
:10286000909D0108FC9D0108689E0108D49E010806
:1028700003EB0900914248F8040C48E9033301F0E6
:102880008C8518465A4615F0EFFC034608F10C08F3
:102890000AF10C0A5B4448F8143C009B9845B1D1FE
:1028A000D94BD3E90389C84510D0D8F800000028D7
:1028B00001F08085D8F8081008F10C08091A15F005
:1028C00062F9C845F1D1D04BD3F80C90B9F1000FA3
:1028D00006D0CD4B48465969A1EB090115F053F9D3
:1028E000C94A019BD3606C33C2E904330DF1C408BB
:1028F00058F80C0D002801F00085D8F80810091AC6
:1029000015F041F9B045F3D1002300220DF5936194
:10291000DFF83CC3CDF8A03400232E46C1E90023E4
:10292000BCE80F000FC6BCE80F000FC6DCF8003093
:102930002420336015F029F9AE4600F1240806463C
:10294000CDF89804CDF8A084F44610360EF1100EA0
:10295000BCE80F00BC4546F8100C46F80C1C46F8C5
:10296000082C46F8043CEFD1DEF800000DF2A4423A
:102970000DF593613060A548CDF89C84FEF7E6F82C
:10298000DDF8980420B1DDF8A014091A15F0FBF861
:102990009F4B0DF20C5229469E482B604FF00008C9
:1029A000FDF734FF6C229C490DF5936015F04EFC49
:1029B000002300220DF58561CDF830846C20C1E93B
:1029C000002315F0E2F806466C220DF593616C3693
:1029D000CDF82804CDF8306415F038FC6C228F490E
:1029E0002846CDF82C6415F031FC6C20CDF83484E9
:1029F000CDF83884CDF83C8415F0C7F806466C2233
:102A00002946CDF834046C36CDF83C6415F01EFC34
:102A100083480DF588620DF58561CDF83864FEF7C1
:102A200095F8DDF8340420B1DDF83C14091A15F0EE
:102A3000AAF8DDF8280420B1DDF83014091A15F0E1
:102A4000A2F8784B2846704A7749D3636C2215F078
:102A5000FDFB002300220DF59361CDF8A034002387
:102A60006C20C1E9002315F090F806466C22294637
:102A70006C36CDF89804CDF8A06415F0E7FB6B48F0
:102A80000DF2A4420DF59361CDF89C64FEF75EF85B
:102A9000DDF8980420B1DDF8A014091A15F073F8D8
:102AA0004FF000084FF0000A4FF0000B6C22604915
:102AB00068A815F0CBFBC4F808806C2067AECDE9A0
:102AC0004CAB15F062F800F16C096C2268A9C4F8EF
:102AD0000890206015F0BAFB6C22564983A8C4F810
:102AE000049015F0B3FBC4F814806C20C4E903888B
:102AF00015F04BF800F16C096C2283A9C4F814900E
:102B0000E06015F0A3FB6C224B499EA8C4F810901E
:102B100015F09CFB6C20CDE952ABC4F8208015F079
:102B200034F800F16C096C229EA9C4F82090A061D1
:102B300015F08CFB6C224149B9A8C4F81C9015F023
:102B400085FBC4F82C806C20C4E9098815F01DF8B9
:102B500000F16C096C22B9A9C4F82C90606215F0E0
:102B600075FB6C223649D4A8C4F8289015F06EFB8A
:102B70006C20CDE958ABC4F8388015F006F800F1A8
:102B80006C096C22D4A9C4F83890206315F05EFB60
:102B90006C222C49EFA8C4F8349015F057FBC4F808
:102BA00044806C20C4E90F8814F0EFFF00F16C0939
:102BB0006C22EFA9C4F84490E06315F047FB6C2247
:102BC00021490DF58560C4F8409015F03FFB6C205D
:102BD000CDE95EABC4F8508014F0D7FF00F16C096A
:102BE0006C220DF58561C4F85090A06415F02EFBA1
:102BF0006C2216490DF59360C4F84C9015F026FB35
:102C0000C4F85C806C2025E07C040024940400243B
:102C10008C71A1BEA0040024649F0108D09F01080C
:102C2000AC0400246666663F3CA00108BC04002496
:102C3000A8A0010814A1010880A10108ECA10108C5
:102C400058A20108C4A2010830A301089CA30108EE
:102C5000409F0108C4E9158814F097FF00F16C0942
:102C60006C220DF593616065C4F85C9015F0EEFA86
:102C70006C22DD492846C4F8589015F0E7FA6C201C
:102C8000CDE964ABC4F8688014F07FFF00F16C08F4
:102C90006C2229462066C4F8688015F0D7FA3246BF
:102CA0002146D248C4F86480FDF750FF56F80C0D59
:102CB000002801F02783B168091A14F064FFA642C6
:102CC000F4D1002300220DF59361DFF870C3CDF835
:102CD000A03400232E46C1E90023BCE80F000FC634
:102CE000BCE80F000FC6DCF800302420336014F07D
:102CF0004CFFAE4600F124080646CDF89804CDF806
:102D0000A084F44610360EF1100EBCE80F00BC454E
:102D100046F8100C46F80C1C46F8082C46F8043C03
:102D2000EFD1DEF800000DF2A4420DF593613060A2
:102D3000AF48CDF89C84FDF709FFDDF8980420B179
:102D4000DDF8A014091A14F01EFFAA4B0DF20C5264
:102D50002946A9482B604FF00008FDF757FD6C226B
:102D6000A6490DF5936015F071FA002300220DF5C8
:102D70008561CDF830846C20C1E9002314F005FF93
:102D800006466C220DF593616C36CDF82804CDF81B
:102D9000306415F05BFA6C2299492846CDF82C6412
:102DA00015F054FA6C20CDF83484CDF83884CDF881
:102DB0003C8414F0EAFE06466C222946CDF8340421
:102DC0006C36CDF83C6415F041FA8E480DF58862FA
:102DD0000DF58561CDF83864FDF7B8FEDDF83404F3
:102DE00020B1DDF83C14091A14F0CDFEDDF82804FA
:102DF00020B1DDF83014091A14F0C5FE824B2846C4
:102E0000824A8349DA636C2215F020FA00230022FB
:102E10000DF59361CDF8A03400236C20C1E90023A7
:102E200014F0B3FE06466C2229466C36CDF89804A1
:102E3000CDF8A06415F00AFA76480DF2A4420DF51B
:102E40009361CDF89C64FDF781FEDDF8980420B114
:102E5000DDF8A014091A14F096FE4FF000084FF0A8
:102E6000000A4FF0000B6C226B4968A815F0EEF9D0
:102E7000C4F808806C2067AECDE94CAB14F085FE39
:102E800000F16C096C2268A9C4F80890206015F064
:102E9000DDF96C22614983A8C4F8049015F0D6F9D5
:102EA000C4F814806C20C4E9038814F06EFE00F1AD
:102EB0006C096C2283A9C4F81490E06015F0C6F97F
:102EC0006C2257499EA8C4F8109015F0BFF96C20E9
:102ED000CDE952ABC4F8208014F057FE00F16C0924
:102EE0006C229EA9C4F82090A06115F0AFF96C2265
:102EF0004C49B9A8C4F81C9015F0A8F9C4F82C8066
:102F00006C20C4E9098814F040FE00F16C096C22C1
:102F1000B9A9C4F82C90606215F098F96C22424966
:102F2000D4A8C4F8289015F091F96C20CDE958ABDD
:102F3000C4F8388014F029FE00F16C096C22D4A981
:102F4000C4F83890206315F081F96C223749EFA856
:102F5000C4F8349015F07AF9C4F844806C20C4E9C0
:102F60000F8814F012FE00F16C096C22EFA9C4F86E
:102F70004490E06315F06AF96C222D490DF58560E7
:102F8000C4F8409015F062F96C20CDE95EABC4F84E
:102F9000508014F0FAFD00F16C096C220DF585618A
:102FA000C4F85090A06415F051F96C2221490DF538
:102FB0009360C4F84C9015F049F9C4F85C806C201B
:102FC000C4E9158814F0E1FD00F16C096C220DF5DF
:102FD00093616065C4F85C9015F038F96C2216496D
:102FE0002846C4F858902BE008A40108C80400241F
:102FF000D4040024A107A0BEE004002498A4010882
:1030000004A50108EC040024BC0400249A99193F8B
:1030100070A50108FC040024DCA5010848A60108ED
:10302000B4A6010820A701088CA70108F8A7010889
:1030300064A80108D0A801083CA9010874A40108EB
:1030400015F004F96C20CDE964ABC4F8688014F085
:103050009CFD00F16C086C2229462066C4F868804B
:1030600015F0F4F832462146DC48C4F86480FDF7D8
:103070006DFD56F80C0D002801F04981B168091A60
:1030800014F081FDA642F4D1002300220DF59361D6
:10309000DFF89CC3CDF8A03400232E46C1E90023FD
:1030A000BCE80F000FC6BCE80F000FC6DCF800300C
:1030B0002420336014F069FDAE4600F12408064672
:1030C000CDF89804CDF8A084F44610360EF1100E19
:1030D000BCE80F00BC4546F8100C46F80C1C46F83E
:1030E000082C46F8043CEFD1DEF800000DF2A442B3
:1030F0000DF593613060BA48CDF89C84FDF726FD4C
:10310000DDF8980420B1DDF8A014091A14F03BFD95
:10311000B44B0DF20C522946B3482B604FF0000817
:10312000FDF774FB6C22B1490DF5936015F08EF834
:10313000002300220DF58561CDF830846C20C1E9B3
:10314000002314F022FD06466C220DF593616C36C7
:10315000CDF82804CDF8306415F078F86C22A44935
:103160002846CDF82C6415F071F86C20CDF8348425
:10317000CDF83884CDF83C8414F007FD06466C2267
:103180002946CDF834046C36CDF83C6415F05EF871
:1031900098480DF588620DF58561CDF83864FDF726
:1031A000D5FCDDF8340420B1DDF83C14091A14F024
:1031B000EAFCDDF8280420B1DDF83014091A14F017
:1031C000E2FC8D4B28468D4A8D49DA636C2215F05E
:1031D0003DF8002300220DF59361CDF8A0340023C3
:1031E0006C20C1E9002314F0D0FC06466C2229466D
:1031F0006C36CDF89804CDF8A06415F027F8814816
:103200000DF2A4420DF59361CDF89C64FDF79EFC90
:10321000DDF8980420B1DDF8A014091A14F0B3FC0D
:103220004FF000084FF0000A4FF0000B6C22764977
:1032300068A815F00BF8C4F808806C2067AECDE9DB
:103240004CAB14F0A2FC00F16C096C2268A9C4F824
:103250000890206014F0FAFF6C226C4983A8C4F82F
:10326000049014F0F3FFC4F814806C20C4E90388C0
:1032700014F08BFC00F16C096C2283A9C4F8149043
:10328000E06014F0E3FF6C2261499EA8C4F810903E
:1032900014F0DCFF6C20CDE952ABC4F8208014F0B0
:1032A00074FC00F16C096C229EA9C4F82090A06106
:1032B00014F0CCFF6C225749B9A8C4F81C9014F044
:1032C000C5FFC4F82C806C20C4E9098814F05DFCAB
:1032D00000F16C096C22B9A9C4F82C90606214F05A
:1032E000B5FF6C224C49D4A8C4F8289014F0AEFF66
:1032F0006C20CDE958ABC4F8388014F046FC00F1DE
:103300006C096C22D4A9C4F83890206314F09EFF95
:103310006C224249EFA8C4F8349014F097FFC4F827
:1033200044806C20C4E90F8814F02FFC00F16C0974
:103330006C22EFA9C4F84490E06314F087FF6C227C
:1033400037490DF58560C4F8409014F07FFF6C207C
:10335000CDE95EABC4F8508014F017FC00F16C09A5
:103360006C220DF58561C4F85090A06414F06EFFD6
:103370006C222C490DF59360C4F84C9014F066FF54
:10338000C4F85C806C20C4E9158814F0FEFB00F1E1
:103390006C096C220DF593616065C4F85C9014F0C3
:1033A00055FF6C2220492846C4F8589014F04EFF6F
:1033B0006C20CDE964ABC4F8688014F0E6FB00F142
:1033C0006C086C2229462066C4F8688014F03EFF21
:1033D000324621461548C4F864802BE008050024D5
:1033E00014050024740E23BC20050024CCA9010878
:1033F00038AA01082C050024FC0400249A99193FDE
:10340000A4AA01083C05002410AB01087CAB01080C
:10341000E8AB010854AC0108C0AC01082CAD0108B0
:1034200098AD010804AE010870AE010848050024FB
:10343000A8A90108FDF78AFB56F80C0D002800F03A
:103440006B87B168091A14F09EFBA642F4D10023E1
:1034500000220DF59361DFF82CC4CDF8A0340023D1
:103460002E46C1E90023BCE80F000FC6BCE80F00E0
:103470000FC6DCF800302420336014F086FBAE4623
:1034800000F124080646CDF89804CDF8A084F4464F
:1034900010360EF1100EBCE80F00BC4546F8100CBB
:1034A00046F80C1C46F8082C46F8043CEFD1DEF830
:1034B00000000DF2A4420DF593613060DC48CDF8B8
:1034C0009C84FDF743FBDDF8980420B1DDF8A014DF
:1034D000091A14F058FBD74B0DF20C522946D64866
:1034E0002B604FF00008FDF791F96C22D3490DF5E0
:1034F000936014F0ABFE002300220DF58561CDF83A
:1035000030846C20C1E9002314F03FFB06466C2296
:103510000DF593616C36CDF82804CDF8306414F0C5
:1035200095FE6C22C6492846CDF82C6414F08EFE18
:103530006C20CDF83484CDF83884CDF83C8414F078
:1035400024FB06466C222946CDF834046C36CDF8AF
:103550003C6414F07BFEBB480DF588620DF5856177
:10356000CDF83864FDF7F2FADDF8340420B1DDF867
:103570003C14091A14F007FBDDF8280420B1DDF82B
:103580003014091A14F0FFFAAF4B2846AF4AB0497D
:10359000DA636C2214F05AFE002300220DF59361C9
:1035A000CDF8A03400236C20C1E9002314F0EDFA1B
:1035B00006466C2229466C36CDF89804CDF8A064F6
:1035C00014F044FEA3480DF2A4420DF59361CDF82A
:1035D0009C64FDF7BBFADDF8980420B1DDF8A01477
:1035E000091A14F0D0FA4FF000084FF0000A4FF01B
:1035F000000B6C22984968A814F028FEC4F80880D3
:103600006C2067AECDE94CAB14F0BFFA00F16C0949
:103610006C2268A9C4F80890206014F017FE6C2290
:103620008E4983A8C4F8049014F010FEC4F81480E6
:103630006C20C4E9038814F0A8FA00F16C096C222C
:1036400083A9C4F81490E06014F000FE6C22844951
:103650009EA8C4F8109014F0F9FD6C20CDE952AB8F
:10366000C4F8208014F091FA00F16C096C229EA934
:10367000C4F82090A06114F0E9FD6C227949B9A842
:10368000C4F81C9014F0E2FDC4F82C806C20C4E94E
:10369000098814F07AFA00F16C096C22B9A9C4F80F
:1036A0002C90606214F0D2FD6C226F49D4A8C4F84B
:1036B000289014F0CBFD6C20CDE958ABC4F83880CD
:1036C00014F063FA00F16C096C22D4A9C4F83890A4
:1036D000206314F0BBFD6C226449EFA8C4F8349059
:1036E00014F0B4FDC4F844806C20C4E90F8814F0D1
:1036F0004CFA00F16C096C22EFA9C4F84490E06325
:1037000014F0A4FD6C225A490DF58560C4F8409070
:1037100014F09CFD6C20CDE95EABC4F8508014F031
:1037200034FA00F16C096C220DF58561C4F85090F3
:10373000A06414F08BFD6C224E490DF59360C4F823
:103740004C9014F083FDC4F85C806C20C4E91588AB
:1037500014F01BFA00F16C096C220DF593616065A1
:10376000C4F85C9014F072FD6C2243492846C4F8FA
:10377000589014F06BFD6C20CDE964ABC4F8688000
:1037800014F003FA00F16C086C2229462066C4F894
:10379000688014F05BFD324621463848C4F86480E6
:1037A000FDF7D4F956F80C0D002800F0BA85B16881
:1037B000091A14F0E8F9A642F4D1002300220DF50D
:1037C0009361DFF8C4C0CDF8A03400232E46C1E9D0
:1037D0000023BCE80F000FC6BCE80F000FC6DCF8E2
:1037E00000302420336014F0D0F9AE4600F12408F4
:1037F0000646CDF89804CDF8A084F44610360EF1B4
:10380000100EBCE80F00BC4546F8100C46F80C1C26
:1038100046F8082C46F8043CEFD1DEF800000DF223
:10382000A4420DF5936130601548CDF89C842DE0DD
:10383000540500248D1787BE6005002400AF0108E1
:103840006CAF01086C0500243C0500249A99D93F0F
:10385000D8AF01087C05002444B00108B0B00108CD
:103860001CB1010888B10108F4B1010860B2010877
:10387000CCB2010838B30108A4B3010888050024BC
:1038800094050024DCAE010810B40108FDF75EF9D0
:10389000DDF8980420B1DDF8A014091A14F073F9CA
:1038A000DD4B0DF20C522946DC482B604FF000082E
:1038B000FCF7ACFF6C22DA490DF5936014F0C6FCFE
:1038C000002300220DF58561CDF830846C20C1E91C
:1038D000002314F05AF906466C220DF593616C36FC
:1038E000CDF82804CDF8306414F0B0FC6C22CD493A
:1038F0002846CDF82C6414F0A9FC6C20CDF8348453
:10390000CDF83884CDF83C8414F03FF906466C229B
:103910002946CDF834046C36CDF83C6414F096FC9E
:10392000C1480DF588620DF58561CDF83864FDF765
:103930000DF9DDF8340420B1DDF83C14091A14F057
:1039400022F9DDF8280420B1DDF83014091A14F04A
:103950001AF9B64B2846B64AB649DA636C2214F017
:1039600075FC002300220DF59361CDF8A0340023EF
:103970006C20C1E9002314F008F906466C222946A0
:103980006C36CDF89804CDF8A06414F05FFCAA481A
:103990000DF2A4420DF59361CDF89C64FDF7D6F8C5
:1039A000DDF8980420B1DDF8A014091A14F0EBF842
:1039B0004FF000084FF0000A4FF0000B6C229F49B7
:1039C00068A814F043FCC4F808806C2067AECDE909
:1039D0004CAB14F0DAF800F16C096C2268A9C4F859
:1039E0000890206014F032FC6C22954983A8C4F83A
:1039F000049014F02BFCC4F814806C20C4E90388F4
:103A000014F0C3F800F16C096C2283A9C4F8149077
:103A1000E06014F01BFC6C228A499EA8C4F8109048
:103A200014F014FC6C20CDE952ABC4F8208014F0E3
:103A3000ACF800F16C096C229EA9C4F82090A0613A
:103A400014F004FC6C228049B9A8C4F81C9014F04E
:103A5000FDFBC4F82C806C20C4E9098814F095F8AB
:103A600000F16C096C22B9A9C4F82C90606214F0C2
:103A7000EDFB6C227549D4A8C4F8289014F0E6FB3D
:103A80006C20CDE958ABC4F8388014F07EF800F112
:103A90006C096C22D4A9C4F83890206314F0D6FBCA
:103AA0006C226B49EFA8C4F8349014F0CFFBC4F833
:103AB00044806C20C4E90F8814F067F800F16C09A9
:103AC0006C22EFA9C4F84490E06314F0BFFB6C22B1
:103AD00060490DF58560C4F8409014F0B7FB6C2088
:103AE000CDE95EABC4F8508014F04FF800F16C09DA
:103AF0006C220DF58561C4F85090A06414F0A6FB0B
:103B00006C2255490DF59360C4F84C9014F09EFB5F
:103B1000C4F85C806C20C4E9158814F036F800F114
:103B20006C096C220DF593616065C4F85C9014F02B
:103B30008DFB6C2249492846C4F8589014F086FB46
:103B40006C20CDE964ABC4F8688014F01EF800F175
:103B50006C086C2229462066C4F8688014F076FB55
:103B6000324621463E48C4F86480FCF7EFFF56F821
:103B70000C0D002800F0F883B168091A14F003F85E
:103B8000A642F4D1002300220DF59361DFF8DCC0DA
:103B9000CDF8A03400232E46C1E90023BCE80F0075
:103BA0000FC6BCE80F000FC6DCF8003024203360DD
:103BB00013F0EBFFAE4600F124080646CDF898045A
:103BC000CDF8A084F44610360EF1100EBCE80F00BC
:103BD000BC4546F8100C46F80C1C46F8082C46F874
:103BE000043CEFD1DEF800000DF2A4420DF5936124
:103BF00030601C48CDF89C84FCF7A8FFDDF89804E1
:103C000020B1DDF8A014091A13F0BDFF164B0DF218
:103C10000C5229462CE000BF4E88CABEA0050024E5
:103C200034B40108A0B40108AC0500247C050024CC
:103C3000CDCC4C3F0CB50108BC05002478B501087B
:103C4000E4B5010850B60108BCB6010828B7010860
:103C500094B7010800B801086CB80108D8B8010889
:103C6000C8050024D40500242856063E44B901089E
:103C7000D3482B600027FCF7C9FD6C22D1490DF514
:103C8000936014F0E3FA002300220DF58561CDF86E
:103C900030746C20C1E9002313F077FF06466C22D4
:103CA0000DF593616C36CDF82804CDF8306414F02E
:103CB000CDFA6C22C4492846CDF82C6414F0C6FA1B
:103CC0006C20CDF83474CDF83874CDF83C7413F012
:103CD0005CFF06466C222946CDF834046C36CDF8DC
:103CE0003C6414F0B3FAB9480DF588620DF58561AE
:103CF000CDF83864FCF72AFFDDF8340420B1DDF894
:103D00003C14091A13F03FFFDDF8280420B1DDF858
:103D10003014091A13F037FFAD4B2846AD4AAE49AF
:103D2000DA636C2214F092FA002300220DF59361FD
:103D3000CDF8A03400236C20C1E9002313F025FF47
:103D400006466C2229466C36CDF89804CDF8A0645E
:103D500014F07CFAA1480DF2A4420DF59361CDF860
:103D60009C64FCF7F3FEDDF8980420B1DDF8A014A4
:103D7000091A13F008FF00274FF0000A4FF0000B5C
:103D80006C22974968A814F061FAA7606C2067AEAE
:103D9000CDE94CAB13F0F9FE00F16C0868A96C2278
:103DA000C4F80880206014F051FA6C228D4983A871
:103DB000C4F8048014F04AFA67616C20C4E9037700
:103DC00013F0E3FE00F16C0883A96C22C4F81480A0
:103DD000E06014F03BFA6C2283499EA8C4F810807E
:103DE00014F034FA6C20CDE952AB276213F0CDFE0B
:103DF00000F16C089EA96C22C4F82080A06114F028
:103E000025FA6C227949B9A8C4F81C8014F01EFA6E
:103E1000E7626C20C4E9097713F0B7FE00F16C0883
:103E2000B9A96C22C4F82C80606214F00FFA6C22DD
:103E30006F49D4A8C4F8288014F008FA6C20CDE9A2
:103E400058ABA76313F0A1FE00F16C08D4A96C2253
:103E5000C4F83880206314F0F9F96C226549EFA8A2
:103E6000C4F8348014F0F2F967646C20C4E90F7769
:103E700013F08BFE00F16C08EFA96C22C4F84480AB
:103E8000E06314F0E3F96C225B490DF58560C4F83A
:103E9000408014F0DBF96C20CDE95EAB276513F0B0
:103EA00074FE00F16C086C220DF58561C4F8508039
:103EB000A06414F0CBF96C2250490DF59360C4F85E
:103EC0004C8014F0C3F9E7656C20C4E9157713F052
:103ED0005CFE00F16C086C220DF593616065C4F81E
:103EE0005C8014F0B3F96C2245492846C4F8588028
:103EF00014F0ACF96C20CDE964ABA76613F045FE75
:103F000007466C2229466C372066A76614F09EF996
:103F1000324621463B486766FCF718FE56F80C0D02
:103F2000002800F02582B168091A13F02CFEA64281
:103F3000F4D100230DAF0022334E0C9300233C46F6
:103F4000CDE90A230FCE0FC40FCE0FC4336824204F
:103F5000236013F01AFEBC4600F1240804460DF15C
:103F6000540E0A90CDF83080664610340CF1100CD7
:103F70000FCE764544F8100C44F80C1C44F8082C7D
:103F800044F8043CF0D1DCF800002060CDF82C802F
:103F9000DFF84880D8F81860D8F820309B1B0B2B2E
:103FA00000F2E5830C2013F0F0FD00230746836048
:103FB000C0E90033DDE90A10441A00F0C68525E0A7
:103FC000E005002468B90108D4B90108EC05002413
:103FD000BC0500249A99193F40BA0108FC05002449
:103FE000ACBA010818BB010884BB0108F0BB01088A
:103FF0005CBC0108C8BC010834BD0108A0BD0108B3
:104000000CBE01080806002478BE0108C74B9C427C
:1040100000F29F85204613F0B8FD0346DDE90A1043
:10402000461A1C448842BC60C7E9003304D01846D5
:10403000324614F019F90346334407F10C09D8E964
:1040400006467B60B4420CD02068002800F05A82FB
:10405000A1680C34091A13F096FDB442F4D1D8F8D3
:1040600018602EB1D8F820103046891B13F08BFD54
:10407000C8F82090C8E906790A9818B10C99091A6D
:1040800013F081FDAA4B0DF20C522946A9482B6072
:104090000026FCF7BBFB6C22A7490DF5936014F0DA
:1040A000D5F8002300220DF58561CDF830646C2031
:1040B000C1E9002313F069FD04460DF593616C22FC
:1040C0006C34CDF82804CDF8304414F0BFF86C22DD
:1040D0009A492846CDF82C4414F0B8F86C20CDF855
:1040E0003464CDF83864CDF83C6413F04EFD0446DA
:1040F0006C222946CDF834046C34CDF83C4414F0DD
:10410000A5F88F480DF588620DF58561CDF8384426
:10411000FCF71CFDDDF8340420B1DDF83C14091A6D
:1041200013F031FDDDF8280420B1DDF83014091A50
:1041300013F029FD4FF07C5382492846C8F83C30E3
:10414000FDF750FE80490DF5A960FDF74BFE7F4954
:104150000DF5B160DFF80C82FDF744FE7C490DF5EA
:10416000B960FDF73FFE7B490DF5C160FDF73AFEF2
:1041700079490DF5C960FDF735FE78490DF5D16037
:10418000FDF730FE76490DF5D960FDF72BFED8F826
:104190000060D8F808309B1BB3F5007F80F03482B4
:1041A0004FF400702E4613F0F0FC044600F5007A40
:1041B00000902046403431464036FDF713FEA245BC
:1041C000F7D1D8E900794F4500F0058140373E46E8
:1041D00056E9044B5C450CD02068002800F0818033
:1041E000A1680C34091A13F0CEFCA345F4D156F89B
:1041F00010BCBBF1000F06D056F8081C5846A1EBC6
:104200000B0113F0C0FC56F81C0C20B156F8141C1E
:10421000091A13F0B8FC56E90A4B5C450BD020682C
:10422000002852D0A1680C34091A13F0ACFC5C458C
:10423000F5D156F828BCBBF1000F06D056F8201C6B
:104240005846A1EB0B0113F09EFC56E90D4B5C4563
:104250000BD0206800283ED0A1680C34091A13F056
:1042600092FC5C45F5D156F834BCBBF1000F06D08A
:1042700056F82C1C5846A1EB0B0113F084FC56E9B0
:10428000104B5C450AD02068C8B1A1680C34091AEB
:1042900013F079FC5C45F6D156F840BCBBF1000F39
:1042A00000F0928056F8381C58464036A1EB0B01BE
:1042B00013F069FCB94500F08C80403788E70C3476
:1042C000A345E0D156F840BCE8E70C34A345A6D19D
:1042D00056F828BCAFE70C34A345BAD156F834BC25
:1042E000C3E70C34A3457FF477AF56F810BC80E7E2
:1042F000A6427EF454A8FEF75DB8B0457EF4F8AA55
:10430000FEF702BBA6427EF4D1ACFEF7DABCA642B1
:104310007EF4AFAEFEF7B8BEA6427FF48DA8FFF7DD
:1043200096B8A6427FF43EAAFFF747BAFCFFFF7F8C
:10433000CED5383F200600249CBE010808BF0108E6
:104340002C0600243C0400247C040024BC0400242B
:10435000FC0400243C0500247C050024BC0500244A
:10436000FC050024300F0024A6427FF400AC09E4D1
:10437000A6427FF4D3ADDCE50C34A5427DF41BAF3F
:10438000D8F80050FDF724BF0C36B2457EF429A9B9
:104390009C4BD3F800A0FEF732B95B4408F10C083F
:1043A0000AF10C0A48F8143C009B43457EF42AAA03
:1043B000FEF776BA08F10C08C1457EF476AA914B57
:1043C000D3F80C90FEF782BAB94506F140067FF4A7
:1043D00074AFD8F80090B9F1000F06D0D8F80810E3
:1043E0004846A1EB090113F0CEFB009BC8F808A0DA
:1043F000C8E9003A0DF5E166A6F1400756E9040860
:10440000404504460BD02068002875D0A1680C34C4
:10441000091A13F0B8FBA045F5D156F8100C20B1DD
:1044200056F8081C091A13F0AEFB56F81C0C20B104
:1044300056F8141C091A13F0A6FB56E90A08404561
:1044400004460BD02068002850D0A1680C34091A0B
:1044500013F099FBA045F5D156F8280C20B156F879
:10446000201C091A13F08FFB56E90D08404504463D
:104470000AD02068A0B3A1680C34091A13F083FB9A
:10448000A045F6D156F8340C20B156F82C1C091A68
:1044900013F079FB56E91008404504460AD020681D
:1044A000C0B1A1680C34091A13F06DFBA045F6D118
:1044B00056F8400C40B156F8381C091A13F063FB4B
:1044C000BD4203D03E4697E7BD42FBD10DF20C7DC5
:1044D000BDE8F08F0C34A045E1D156F8400CE9E777
:1044E0000C34A045C5D156F8340CCDE70C34A045AA
:1044F000A8D156F8280CB1E70C34A04583D156F862
:10450000100C8CE70C34A6427FF49EADD8F81860EE
:10451000A7E5CB464B46FEF7ABB93A4BD3F8049030
:10452000A9EB06030B2B40F2428106A93046FCF7AB
:10453000E9F8344B06F10C08D3F80490C1453EF479
:104540006DA846463068002800F0EB82B1680C3652
:10455000091A13F018FB4E45F4D12A4BC3F8048016
:10456000FEF75CB8D8F804703B1B0B2B40F270814F
:1045700002A92046FCF7C6F804F10C05D8F804603F
:10458000AE423DF430AE2C462068002800F0C482D4
:10459000A1680C34091A13F0F6FAA642F4D1C8F84F
:1045A0000450FDF720BE174BD3F810A0AAEB080368
:1045B0006B2B40F29B8108F16C09B246404608F132
:1045C0000C0851460AF10C0AFCF79CF8C845F5D1D5
:1045D0000C4BD3F810A0CA453EF488A9C846D8F8B9
:1045E0000000002800F0A282D8F8081008F10C089A
:1045F000091A13F0C8FAD045F1D1024BC3F8109054
:10460000FEF774B97C040024D8F80440A31BB3F56A
:10461000007FC0F01A8206F5007934462F46204606
:104620003946FCF7B1FB04F10C0007F10C01FCF773
:10463000ABFB04F1180007F11801FCF7A5FB04F12E
:10464000240007F12401FCF75DF804F13000403448
:1046500007F13001FCF798FBFB6BA14507F1400720
:1046600044F8043CDBD1D8F804A0D1453FF4C2AEF5
:1046700006F510764F4656E9044B5C450CD0206891
:10468000002800F03582A1680C34091A13F07BFA77
:104690005C45F4D156F810BCBBF1000F06D056F8BB
:1046A000081C5846A1EB0B0113F06DFA56F81C0CD0
:1046B00020B156F8141C091A13F065FA56E90A4B92
:1046C0005C450CD02068002800F01982A1680C34E9
:1046D000091A13F058FA5C45F4D156F828BCBBF11E
:1046E000000F06D056F8201C5846A1EB0B0113F022
:1046F0004AFA56E90D4B5C450CD02068002800F0C2
:10470000EA81A1680C34091A13F03DFAA345F4D1EB
:1047100056F834BCBBF1000F06D056F82C1C584696
:10472000A1EB0B0113F02FFA56E9104B5C450CD0AE
:104730002068002800F0CA81A1680C34091A13F01F
:1047400022FAA345F4D156F840BC4037BBF1000F24
:1047500000F0DC8156F8381C58464036A1EB0B01BE
:1047600013F011FA574586D1C8F8049042E6D8F8FC
:104770001CA0AAEB06030B2B40F21B8130460AA9B2
:10478000FBF7C0FF0C36D8F81C70B7423FF474AC8E
:1047900034462068002800F0CF81A1680C34091A43
:1047A00013F0F1F9BC42F4D1C8F81C6064E406AA25
:1047B00002EB030A33B1304606A9FBF7A3FFC94B4E
:1047C000D3F8049009AB9A4531D00AF10C0A09F1EB
:1047D0000C060022D346B1465AE9031346E90322E8
:1047E000B3EB010846F8042C30D0BF4B984500F2DB
:1047F000B081404613F0C9F9034603EB080246E9CD
:10480000033346F8042C5AE903129142A2EB010843
:1048100012D01846424613F027FD03460AF10C0A4F
:104820000C36434446F8143C09AB9B45D1D1AD4B03
:10483000C3F80490FDF7F2BE43440AF10C0A0C36AB
:1048400046F8143C09AB9B45C3D1F0E74346D4E797
:1048500002AA02EB030A2BB1204602A9FBF752FF82
:10486000D8F804700DF11409CA452FD00AF10C0ACA
:1048700007F10C040023564627465AE9032544E96C
:104880000333AD1A44F8043C2ED0974B9D4200F2FE
:104890006081284613F079F903461D4444E9033347
:1048A00044F8045C5AE903129142A2EB010511D0CD
:1048B00018462A4613F0D8FC03464E450AF10C0A66
:1048C0002B4404F10C0444F8143CD3D1C8F8047010
:1048D000FDF789BC2B444E450AF10C0A04F10C0487
:1048E00044F8143CC6D1F1E72B46D6E74FEAA309BA
:1048F0007E4A06EB030B02FB09F973B1B24651463F
:104900004046FBF7FFFEB9F101090AF10C0A08F174
:104910000C08F4D1734BD3F810A031AB9B4536D0C3
:104920000BF10C0B0AF10C080023D946CDF80080DE
:104930005BE9032148E90333B1EB020A48F8043C80
:1049400035D0694B9A4500F20481504613F01DF9A9
:10495000034603EB0A0248E9033348F8042C5BE9F9
:1049600003108142A0EB010216D01846019213F009
:104970007BFC019A03460BF10C0B08F10C08134465
:1049800048F8143C31AB9945CED1DDF800A0554B29
:10499000C3F810A0FDF7AABF13440BF10C0B08F1EC
:1049A0000C0848F8143C31AB9945BDD1EDE75346AE
:1049B000CFE70AAA02EB030B2BB130460AA9FBF79B
:1049C000A1FED8F81CA0BB452FD00BF10C0B0AF1AF
:1049D0000C040023D946A2465BE9032644E90333CD
:1049E000B61A44F8043C2ED03F4B9E4200F2B180F0
:1049F000304613F0CAF803461E4444E9033344F832
:104A0000046C5BE903129142A2EB010611D0184637
:104A1000324613F029FC0346B9450BF10C0B334425
:104A200004F10C0444F8143CD3D1C8F81CA0FFF7DF
:104A300023BB3344B9450BF10C0B04F10C0444F8CF
:104A4000143CC6D1F1E73346D6E7EF184FEAA31975
:104A50008BB32C4621463046FCF796F904F10C0145
:104A600006F10C00FCF790F904F1180106F11800AA
:104A7000FCF78AF904F1240106F12400FBF742FE59
:104A800004F13001403406F13000FCF77DF9403686
:104A900054F8043CB9F1010946F8043CDAD10DF5AB
:104AA000E163D8F804409F4209D039462046403798
:104AB0004034FDF797F90DF5E1639F42F5D1C8F851
:104AC000044097E425462346FDF762BB0C34A3451A
:104AD0007FF42EAE37E60C34A3457FF40EAE56F8C5
:104AE00034BC17E67C040024FCFFFF7FABAAAAAA13
:104AF0000C34A3457FF4C3AD56F810BCCCE50C34A0
:104B0000A3457FF4DFAD56F828BCE8E5BA4506F1C9
:104B100040067FF4B0AD27E60C34A6427FF434ADF6
:104B20003DE50C36B1457FF40DAD16E508F10C08F6
:104B3000C2457FF454AD60E50C34A7427FF429AE42
:104B400032E6B1463346FDF736BD26462346FFF72B
:104B500068BA13F02BF800BF1E4B00201E4A00213C
:104B60001B68F0B503EB4303166885B0002206EB23
:104B700083059F006C68F3590292E41ACDE90001A5
:104B800023D0164B9C4222D8204612F0FEFF03464B
:104B90001C440294CDE90033F15968688142A0EBCE
:104BA000010404D01846224613F05EFB034623445A
:104BB0000B486946019301F04DFB009818B102992A
:104BC000091A12F0E0FF05B0F0BD2346E0E712F04D
:104BD000EDFF00BF6C080024E0070024FCFFFF7F0E
:104BE00038080024C8480121C84AC94B70B5066876
:104BF000116000211B68B201C64C03EB86169B585E
:104C00001A6804F5C0731068C4F89000506AA06672
:104C1000906CC4F8B8005068C4F89400906AE066DC
:104C2000D06CC4F8BC009068C4F89800D06A2067C3
:104C3000106DC4F8C000D068C4F89C00106B6067A9
:104C4000506DC4F8C4001069C4F8A000506BA06790
:104C5000906DC4F8C8005069C4F8A400906BE06778
:104C6000D06DC4F8CC009069C4F8A800D06BC4F82B
:104C70008000106EC4F8D000D069C4F8AC00106C8D
:104C8000C4F88400506EC4F8D400106AC4F8B000B0
:104C9000506CC4F88800906EC4F8D8001068C4F84E
:104CA0000801506AC4F83001906CC4F8580150688B
:104CB000C4F80C01906AC4F83401D06CC4F85C01EB
:104CC0009068C4F81001D06AC4F83801106DC4F8B7
:104CD0006001D068C4F81401106BC4F83C01506D39
:104CE000C4F864011069C4F81801506BC4F840019D
:104CF000906DC4F868015069C4F81C01906BC4F849
:104D00004401D06DC4F86C019069F568C4F82001C5
:104D1000D06BC4F84801106EC4F87001D069C4F8B3
:104D20002401106CC4F84C01506EC4F87401106A70
:104D3000C4F82801506CC4F85001926EC4F8782170
:104D400055F82120033110681B2943F8040B506AE1
:104D5000C3F84401906CC3F88C0250681862906AE2
:104D6000C3F86801D06CC3F8B00290685864D06A88
:104D7000C3F88C01106DC3F8D402D0689866106B2C
:104D8000C3F8B001506DC3F8F8021069C3F88C0085
:104D9000506BC3F8D401906DC3F81C035069C3F87D
:104DA000B000906BC3F8F801D06DC3F84003906970
:104DB000C3F8D400D06BC3F81C02106EC3F86403B0
:104DC000D069C3F8F800106CC3F84002506EC3F805
:104DD0008803106AC3F81C01506CC3F86402926E19
:104DE000C3F8AC23ACD1336B24224B4800211D689F
:104DF000DB6895ED007AD3ED007A77EE877AC0ED27
:104E0000007A95ED097AD3ED097A77EE877AC0EDCD
:104E10000A7AD5F848C0C0F850C0D3F848C0C0F8E6
:104E200078C095ED017AD3ED017A77EE877AC0EDFF
:104E3000017A95ED0A7AD3ED0A7A77EE877AC0ED9A
:104E40000B7AD5F84CC0C0F854C0D3F84CC0C0F8A9
:104E50007CC095ED027AD3ED027A77EE877AC0EDC9
:104E6000027A93ED0B7AD5ED0B7A77EE877AC0ED67
:104E70000C7AD5F850C0C0F858C0D3F850C0C0F86C
:104E800080C093ED037AD5ED037A77EE877AC0ED93
:104E9000037A93ED0C7AD5ED0C7A77EE877AC0ED34
:104EA0000D7AD5F854C0C0F85CC0D3F854C0C0F82F
:104EB00084C093ED047AD5ED047A77EE877AC0ED5D
:104EC000047A93ED0D7AD5ED0D7A77EE877AC0ED01
:104ED0000E7AD5F858C0C0F860C0D3F858C0C0F8F2
:104EE00088C093ED057AD5ED057A77EE877AC0ED27
:104EF000057A95ED0E7AD3ED0E7A77EE877AC0EDCE
:104F00000F7AD5F85CC009E02C0F0024280F00248C
:104F1000300F002478080024D00D0024C0F864C0AD
:104F2000D3F85CC0C0F88CC093ED067AD5ED067A54
:104F300077EE877AC0ED067A95ED0F7AD3ED0F7A8A
:104F400077EE877AC0ED107AD5F860C0C0F868C0F7
:104F5000D3F860C0C0F890C095ED077AD3ED077A1A
:104F600077EE877AC0ED077A93ED107AD5ED107A57
:104F700077EE877AC0ED117AD5F864C0C0F86CC0BE
:104F8000D3F864C0C0F894C093ED087AD5ED087AE0
:104F900077EE877AC0ED087A93ED117AD5ED117A24
:104FA00077EE877AC0ED127AAD6E05679B6EC0F81A
:104FB0009830A0F5A360B3691B681D68A5615D68A2
:104FC000E5619D682562DD6865621D69A5625D69B0
:104FD000E5629D692563DD6965631B6AA363736A86
:104FE0001B68636113F05AF9014BF26B1A6070BDD4
:104FF0003C0F0024000000002DE9F04F00218BB091
:1050000079484FF0000A00F02DFE4FF48071764889
:1050100000F0B0FD0321744800F0BEFD734CFFF7B3
:105020009BFD734EFDF778F84FF07E52714B0521D2
:1050300071481A60714B0160C3F800A0FFF7D2FD00
:105040000DF1080CF0EE040A9FED6D0A6D4F0FCCC8
:10505000ACE80F0094E80F008CE80F00524602A95C
:105060006948A4F1500502F0D5FD172001F08EF932
:10507000ADF80400019952469FED640A644802F0BD
:10508000D1FC284600F09AFD2846624900F070FDE8
:105090007DE0A0F10104B4FA84F464093368A3420A
:1050A0003ED03B685C4A03EB430BD2F80080002201
:1050B00008EB8B0958F82B30D9F804000492B0EBB8
:1050C000030A9FED477B8DED027B00F08580534BFB
:1050D0009A4500F28380504612F057FD034603EBD9
:1050E0000A00CDE90233049058F82B00D9F80410D7
:1050F0008842A1EB000A05D001465246184613F03B
:10510000B3F803465344464802A9039301F0A2F8BA
:10511000029818B10499091A12F035FD3C60346008
:105120000121314800F0DAFD00284FD0012815BFD9
:105130004FF0010B4FF0020B4FF0020A4FF0030A41
:1051400014BF002401240221274800F0C7FD0028D5
:105150003AD0012808BF5C46324B1A68A24204D0FC
:105160001C60254B1C60FFF73DFD2F4BF7EE007ACE
:105170009FED2E0A1B782648002B07FE800A02F0BE
:1051800075FC234802F084FC174800F0D3FD0A2187
:10519000154800F0EBFC144800F014FD124800F034
:1051A000DDFE95F8743133B195F87A317F2B02D159
:1051B0001F4B01221A7000210B4800F08FFD0028C0
:1051C0007FF467AF022469E75446C5E74FF0030B4D
:1051D0004FF0040A0224B6E7534680E712F0E6FCDB
:1051E00000000000000000004006002480060024AB
:1051F000400F00243C0F00242C0F0024DC07002467
:10520000CDCCCC3D6C0800240404002400007A447A
:105210001C080024A50F0008E0070024FCFFFF7F06
:105220003808002470080024040000240000000056
:105230003C06002470B5D1E9002500230E46AD1AC6
:1052400004468360C0E9003319D00F4B9D4218D843
:10525000284612F09AFC03461D44C4E90033A560B9
:10526000D6E900108842A0EB010504D018462A4672
:1052700012F0FAFF03462B442046636070BD2B46B4
:10528000EAE712F093FC00BFFCFFFF7F2DE9F04D31
:10529000D4480024ADF5C86DD34AD4494FF0000A74
:1052A00084636E46DFF8B0834FF0000BD04FD14DD2
:1052B000C0E90044C0E90244C0E90444C0E906442E
:1052C000C0E90844C0E90A44C0E90C4412F056FCA5
:1052D000C948C54AC5498463C0E90044C0E90244DD
:1052E000C0E90444C0E90644C0E90844C0E90A44EE
:1052F000C0E90C4412F042FCC048BB4ABB4984637D
:10530000C0E90044C0E90244C0E90444C0E90644DD
:10531000C0E90844C0E90A44C0E90C4412F02EFC7C
:10532000B748B14AB1498463C0E90044C0E90244C6
:10533000C0E90444C0E90644C0E90844C0E90A449D
:10534000C0E90C4412F01AFCAE48A74AA74984638E
:10535000C0E90044C0E90244C0E90444C0E906448D
:10536000C0E90844C0E90A44C0E90C4412F006FC54
:10537000A5489D4A9D498463C0E90044C0E90244B0
:10538000C0E90444C0E90644C0E90844C0E90A444D
:10539000C0E90C4412F0F2FB9C48934A93498463A1
:1053A000C0E90044C0E90244C0E90444C0E906443D
:1053B000C0E90844C0E90A44C0E90C4412F0DEFB2D
:1053C0009348894A89498463C0E90044C0E902449A
:1053D000C0E90444C0E90644C0E90844C0E90A44FD
:1053E000C0E90C4412F0CAFB8A487F4A8A498460AB
:1053F000C0E9004412F0C2FB4FF4C862874930464E
:1054000012F024FF4046C8F808400DF5C862314646
:10541000C8E900ABFBF7D6F9734A8149404612F060
:10542000ADFB4FF4C8627F49304612F00FFF38469B
:10543000BC600DF5C8623146C7E900ABFBF7C2F9A5
:10544000694A7749384612F099FB4FF4C8627649A9
:10545000304612F0FBFE2846AC600DF5C8623146BE
:10546000C5E900ABFBF7AEF95F4A6D49284612F07B
:1054700085FB41463046DFF8B881FFF7DBFE394651
:1054800003A8FFF7D7FE294606A83546FFF7D2FE48
:10549000C8F808402420C8E9004412F076FB00F167
:1054A00024070446C8F80000C8F8087020460C34E9
:1054B00029460C35FFF7BEFEA742F7D109ACC8F864
:1054C000047054F80C3D1846002B00F04483A1688A
:1054D000C91A12F058FBB442F3D1434A002653498B
:1054E0000025534812F04AFB52483F4A5249066091
:1054F00046610662C663C0F89061A0F89461C0F886
:1055000098614E4CC0E96066C0E9626612F036FBF5
:10551000354A4B494B4812F031FB334A4A494B4814
:1055200012F02CFB4A4800F02FFD2F4A4949484809
:1055300012F024FB3146242204F1180012F0AEFED2
:1055400004F2A4634FF07E52314604F58470C4F82F
:1055500094661A6004F5D5632422C4F898661D6029
:1055600065612561C4F89C66C4F8A06612F096FED9
:105570003146242204F5987012F090FE3146242220
:1055800004F5AC7012F08AFE3146242204F5AB60BB
:1055900012F084FE3146242204F5B06012F07EFE43
:1055A0003146242204F5B56012F078FE31462422FB
:1055B00004F5BA6012F072FE3146242204F5BF6091
:1055C00012F06CFE3146242204F5C46012F066FE2F
:1055D0003146242204F5C96012F060FE31462422CF
:1055E0003CE000BF3C04002400000024650A0008E1
:1055F00000080024100800247C040024BC040024BB
:10560000FC0400243C0500247C050024BC05002487
:10561000FC050024300F00240D09000874BF0108A8
:10562000D9060008B4C50108F4CB0108D108000868
:10563000E007002440060024D5060008780800246E
:10564000CD06000804040024D10600081C0800242C
:1056500038080024A95F0008F007002404F5CE6094
:1056600012F01CFE04F5826204F21443C4F8805167
:10567000156004F583621D6004F21C43156004F597
:1056800084621D6004F22443156004F585621D6088
:1056900004F22C43156004F586621D6004F2344365
:1056A000156004F58762C4F8C8523146C4F88451C5
:1056B00004F14000C4F8CC52C4F88851C4F8D05268
:1056C000C4F88C51C4F8D452C4F89051C4F8D852DC
:1056D000C4F89451C4F8DC52C4F89851C4F8E052AC
:1056E000C4F89C51C4F8E452C4F8A051C4F8E8527C
:1056F000C4F89050A566C4F8B850C4F8A451C4F8D2
:10570000EC521D6004F23C43156004F588621D6094
:1057100004F24443156004F589621D6004F24C43B1
:10572000156004F58A621D6004F25443156004F5A7
:105730008B621D6004F25C43156004F58C62C4F852
:10574000A851C4F8F052C4F8AC51C4F8F452C4F8EB
:10575000B051C4F8F852C4F8B451C4F8FC52C4F8BB
:10576000B851C4F80053C4F8BC51C4F80453C4F889
:10577000C051C4F80853C4F8C451C4F80C53C4F859
:105780009450E566C4F8BC50C4F8C851C4F810532E
:10579000C4F8CC51C4F814531D6004F2644315607E
:1057A00004F58D621D6004F26C43156004F58E6291
:1057B0001D6004F27443156004F58F621D6004F2ED
:1057C0007C43156004F590621D6004F2844315600B
:1057D00004F59162C4F8D051C4F81853C4F8D451F8
:1057E000C4F81C53C4F8D851C4F82053C4F8DC5191
:1057F000C4F82453C4F8E051C4F82853C4F8E45161
:10580000C4F82C53C4F8E851C4F83053C4F8985085
:105810002567C4F8C050C4F8EC51C4F83453C4F838
:10582000F051C4F83853C4F8F451C4F83C531D6027
:1058300004F28C43156004F592621D6004F29443F7
:10584000156004F593621D6004F29C43156004F535
:1058500094621D6004F2A443156004F595621D6016
:1058600004F2AC43156004F59662C4F8F851C4F82C
:105870004053C4F8FC51C4F84453C4F80052C4F86F
:105880004853C4F80452C4F84C53C4F80852C4F83E
:105890005053C4F80C52C4F85453C4F89C50656774
:1058A000C4F8C450C4F81052C4F85853C4F8145281
:1058B000C4F85C53C4F81852C4F86053C4F81C52BE
:1058C000C4F864531D6004F2B443156004F5976294
:1058D0001D6004F2BC43156004F598621D6004F27B
:1058E000C443156004F599621D6004F2CC43156051
:1058F00004F59A621D6004F2D443156004F59B62BE
:10590000C4F82052C4F86853C4F82452C4F86C5345
:10591000C4F82852C4F87053C4F82C52C4F8745315
:10592000C4F83052C4F87853C4F8A050A567C4F83E
:10593000C850C4F83452C4F87C53C4F83852C4F880
:105940008053C4F83C52C4F88453C4F84052C4F89D
:105950008853C4F84452C4F88C531D6004F2DC43ED
:10596000156004F59C621D6004F2E443156004F5C3
:105970009D621D6004F2EC43156004F59E621D609B
:1059800004F2F443156004F59F621D6004F2FC43C9
:10599000156004F5A062C4F84852C4F89053C4F8E6
:1059A0004C52C4F89453C4F85052C4F89853C4F8F5
:1059B0005452C4F89C53C4F8A450E567C4F8CC50C2
:1059C000C4F85852C4F8A053C4F85C52C4F8A453A5
:1059D000C4F86052C4F8A853C4F86452C4F8AC5375
:1059E000C4F86852C4F8B053C4F86C52C4F8B45345
:1059F0001D6004F20453156004F5A1621D6004F2F9
:105A00000C53156004F5A2621D6004F21453156076
:105A100004F5A3621D6004F21C53156004F5A46232
:105A20001D6004F22453156004F5A562C4F8705299
:105A3000C4F8B853C4F87452C4F8BC53C4F87852CC
:105A4000C4F8C053C4F8A850C4F88050C4F8D0506B
:105A5000C4F87C52C4F8C453C4F88052C4F8C85384
:105A6000C4F88452C4F8CC53C4F88852C4F8D05354
:105A7000C4F88C52C4F8D453C4F89052C4F8D85324
:105A8000C4F89452C4F8DC531D6004F22C53156022
:105A900004F5A6621D6004F23453156004F5A76294
:105AA0001D6004F23C53156004F5A8621D6004F209
:105AB0004453156004F580621D6004F5A963156008
:105AC00004F204421D6004F24C53156004F5816237
:105AD000C4F89852C4F8E053C4F89C52C4F8E45394
