:020000040800F2
:1000000000000220010A0008FD090008B5A0000850
:10001000FD090008FD090008FD09000800000000B6
:10002000000000000000000000000000FD090008C2
:10003000FD09000800000000FD09000839A00008C3
:10004000FD090008FD090008FD090008FD09000878
:10005000FD090008FD090008FD090008FD09000868
:10006000FD090008FD090008FD090008259C00089D
:10007000319C00088D8900083D9C0008499C0008BF
:10008000DD5B010859910008FD090008FD09000821
:10009000FD090008FD090008FD090008FD09000828
:1000A000FD090008FD090008FD090008FD09000818
:1000B000F54F0108015001080D5001088D9100080D
:1000C000FD09000899910008FD090008654801082C
:1000D00071480108115A01083D5A0108715A010876
:1000E000FD090008FD09000800000000FD090008E6
:1000F000FD090008FD090008FD090008FD090008C8
:10010000FD090008FD090008195001087D48010893
:10011000A55A0108D95A0108FD090008FD0900087F
:10012000FD090008FD090008A1480108D54801089B
:10013000115C0108FD090008FD090008FD0900081F
:1001400000000000000000000000000000000000AF
:10015000FD090008FD090008FD0900080D5B010804
:10016000A5910008FD09000849A000086DA000083D
:10017000FD09000891A00008FD090008FD0900081C
:10018000FD090008FD090008415B0108755B0108D5
:100190008948010895480108FD090008FD09000883
:1001A000FD090008FD090008FD090008FD09000817
:1001B00045990008FD090008FD090008FD0900082F
:1001C000FD090008FD090008418400084D8400086D
:1001D000FD09000859840008FD090008FD09000810
:1001E000FD090008FD090008FD090008FD090008D7
:1001F000FD090008FD090008FD090008FD090008C7
:10020000FD090008FD090008FD090008FD090008B6
:10021000FD090008FD090008FD090008FD090008A6
:10022000FD090008FD090008FD09000800000000A4
:10023000FD090008FD09000800000000FD09000894
:10024000FD090008FD090008FD090008FD09000876
:10025000FD090008FD090008FD090008FD09000866
:10026000FD090008FD090008FD090008FD09000856
:10027000FD090008FD090008A95B01080000000055
:10028000FD090008FD090008FD0900080000000044
:0802900000000000FD09000858
:1002A00010B5054C237833B9044B13B10448AFF3B0
:1002B00000800123237010BDE8030024000000002B
:1002C000CCEA010808B5034B1BB103490348AFF35F
:1002D000008008BD00000000EC030024CCEA010807
:1002E00001F0FF01102A2BDB10F0070F08D010F8E7
:1002F000013B013A8B422DD010F0070F42B3F6D1EB
:10030000F0B441EA012141EA014122F007047FF003
:1003100000070023F0E80256083C85EA010586EA5A
:10032000010685FA47F5A3FA87F586FA47F6A5FA96
:1003300087F68EB9EED1F0BC01F0FF0102F00702A2
:1003400032B110F8013B013A83EA010313B1F8D14D
:100350000020704701387047002D06BF354603382E
:10036000073815F0010F07D1013015F4807F02BF67
:10037000013015F4C03F0130F0BC0138704700BFB8
:1003800081F0004102E000BF83F0004330B54FEA46
:1003900041044FEA430594EA050F08BF90EA020FB3
:1003A0001FBF54EA000C55EA020C7FEA645C7FEA46
:1003B000655C00F0E2804FEA5454D4EB5555B8BF69
:1003C0006D420CDD2C4480EA020281EA030382EADA
:1003D000000083EA010180EA020281EA0303362D6C
:1003E00088BF30BD11F0004F4FEA01314FF4801C3F
:1003F0004CEA113102D0404261EB410113F0004F51
:100400004FEA03334CEA133302D0524263EB430307
:1004100094EA050F00F0A780A4F10104D5F1200EA5
:100420000DDB02FA0EFC22FA05F2801841F1000100
:1004300003FA0EF2801843FA05F359410EE0A5F1D4
:1004400020050EF1200E012A03FA0EFC28BF4CF005
:10045000020C43FA05F3C01851EBE37101F00045BB
:1004600007D54FF0000EDCF1000C7EEB00006EEBC8
:100470000101B1F5801F1BD3B1F5001F0CD3490852
:100480005FEA30004FEA3C0C04F101044FEA4452A9
:1004900012F5800F80F09A80BCF1004F08BF5FEA30
:1004A000500C50F1000041EB045141EA050130BD10
:1004B0005FEA4C0C404141EB0101013C28BFB1F522
:1004C000801FE9D291F0000F04BF01460020B1FA6D
:1004D00081F308BF2033A3F10B03B3F120020CDA40
:1004E0000C3208DD02F1140CC2F10C0201FA0CF01E
:1004F00021FA02F10CE002F11402D8BFC2F1200C83
:1005000001FA02F120FA0CFCDCBF41EA0C01904038
:10051000E41AA2BF01EB0451294330BD6FEA040481
:100520001F3C1CDA0C340EDC04F11404C4F120026C
:1005300020FA04F001FA02F340EA030021FA04F37E
:1005400045EA030130BDC4F10C04C4F1200220FAD5
:1005500002F001FA04F340EA0300294630BD21FA13
:1005600004F0294630BD94F0000F83F4801306BFD9
:1005700081F480110134013D4EE77FEA645C18BFCD
:100580007FEA655C29D094EA050F08BF90EA020F64
:1005900005D054EA000C04BF1946104630BD91EA5C
:1005A000030F1EBF0021002030BD5FEA545C05D15F
:1005B0004000494128BF41F0004130BD14F580049E
:1005C0003CBF01F5801130BD01F0004545F0FE4112
:1005D00041F470014FF0000030BD7FEA645C1ABF47
:1005E000194610467FEA655C1CBF0B46024650EA7E
:1005F000013406BF52EA033591EA030F41F40021AA
:1006000030BD00BF90F0000F04BF0021704730B52F
:100610004FF4806404F132044FF000054FF0000104
:1006200050E700BF90F0000F04BF0021704730B5C5
:100630004FF4806404F1320410F0004548BF40429A
:100640004FF000013EE700BF42004FEAE2014FEAEF
:1006500031014FEA02701FBF12F07F4393F07F4FCA
:1006600081F06051704732F07F4208BF704793F0CD
:100670007F4F04BF41F40021704730B54FF46074E0
:1006800001F0004521F000411CE700BF50EA0102E3
:1006900008BF704730B54FF000050AE050EA01028C
:1006A00008BF704730B511F0004502D5404261EBFC
:1006B00041014FF4806404F132045FEA915C3FF43D
:1006C000D8AE4FF003025FEADC0C18BF03325FEADA
:1006D000DC0C18BF033202EBDC02C2F1200300FA8B
:1006E00003FC20FA02F001FA03FE40EA0E0021FAB0
:1006F00002F11444BDE600BF53B94AB9002908BF4E
:1007000000281CBF4FF0FF314FF0FF3000F074B9EC
:10071000ADF1080C6DE904CE00F006F8DDF804E058
:10072000DDE9022304B070472DE9F047089D044637
:100730008E46002B4DD18A42944669D9B2FA82F294
:1007400052B101FA02F3C2F1200120FA01F10CFAD0
:1007500002FC41EA030E94404FEA1C48210CBEFB08
:10076000F8F61FFA8CF708FB16E341EA034306FB91
:1007700007F199420AD91CEB030306F1FF3080F020
:100780001F81994240F21C81023E63445B1AA4B26D
:10079000B3FBF8F008FB103344EA034400FB07F70F
:1007A000A7420AD91CEB040400F1FF3380F00A8150
:1007B000A74240F207816444023840EA0640E41B45
:1007C00000261DB1D4400023C5E900433146BDE8F1
:1007D000F0878B4209D9002D00F0EF800026C5E993
:1007E000000130463146BDE8F087B3FA83F6002EAB
:1007F0004AD18B4202D3824200F2F980841A61EB23
:10080000030301209E46002DE0D0C5E9004EDDE740
:1008100002B9FFDEB2FA82F2002A40F09280A1EB28
:100820000C014FEA1C471FFA8CFE0126200CB1FB7D
:10083000F7F307FB131140EA01410EFB03F0884276
:1008400008D91CEB010103F1FF3802D2884200F203
:10085000CB804346091AA4B2B1FBF7F007FB101195
:1008600044EA01440EFB00FEA64508D91CEB040433
:1008700000F1FF3102D2A64500F2BB800846A4EB8E
:100880000E0440EA03409CE7C6F12007B34022FA79
:1008900007FC4CEA030C20FA07F401FA06F31C43A8
:1008A000F9404FEA1C4900FA06F3B1FBF9F8200CB5
:1008B0001FFA8CFE09FB181140EA014108FB0EF0FB
:1008C000884202FA06F20BD91CEB010108F1FF3A4B
:1008D00080F08880884240F28580A8F10208614457
:1008E000091AA4B2B1FBF9F009FB101144EA014165
:1008F00000FB0EFE8E4508D91CEB010100F1FF3410
:100900006CD28E456AD90238614440EA0840A0FBA7
:100910000294A1EB0E01A142C846A64656D353D07D
:100920005DB1B3EB080261EB0E0101FA07F722FAA1
:1009300006F3F1401F43C5E9007100263146BDE8CA
:10094000F087C2F12003D8400CFA02FC21FA03F32D
:10095000914001434FEA1C471FFA8CFEB3FBF7F0AE
:1009600007FB10360B0C43EA064300FB0EF69E42D3
:1009700004FA02F408D91CEB030300F1FF382FD26C
:100980009E422DD9023863449B1B89B2B3FBF7F614
:1009900007FB163341EA034106FB0EF38B4208D9ED
:1009A0001CEB010106F1FF3816D28B4214D9023E2E
:1009B0006144C91A46EA004638E72E46284605E74C
:1009C0000646E3E61846F8E64B45A9D2B9EB02081D
:1009D00064EB0C0E0138A3E74646EAE7204694E7AD
:1009E0004046D1E7D0467BE7023B614432E73046E0
:1009F00009E76444023842E7704700BFFEE700BFE2
:100A00000B480C4A904203D0121A0B4918F092F985
:100A10000A480B4A904203D0121A002118F0B2F98A
:100A200009F0F6FD18F052F904F04CFDFEE700BFA6
:100A300000000024E403002400EB0108E803002484
:100A400054480024704700BF704700BF704700BF84
:100A5000704700BF704700BF704700BF10B5044625
:100A6000006818B1A168091A17F0F7FC204610BDFC
:100A700010B50446D0F8940620B1D4F89C16091A93
:100A800017F0EBFC204610BD814255D003682DE9DC
:100A9000F0410D46876882B00446FF1AD1E900187C
:100AA000A8EB0106BE420FD84068C21A96422DD864
:100AB00088453CD03246184618F04AF923681E444F
:100AC000666002B0BDE8F081002E36D01D4B9E421C
:100AD00035D83046019117F0C2FC2368A768054657
:100AE0000199FF1A884505D032462846019318F02F
:100AF00021F9019B1BB13946184617F0AEFC2E4474
:100B00002560A660666002B0BDE8F0813AB1184683
:100B100018F01EF9D4E90030D5E90018C21A1144C2
:100B2000414504D0A8EB010218F012F923681E44D5
:100B3000666002B0BDE8F08170473546D2E717F035
:100B40009FFC00BFFCFFFF7F0F4B2DE9F041561AC1
:100B50009E4215D804460D46174630460EB117F092
:100B60007EFC00EB0608AF422060C4F8088003D08A
:100B70003246294618F0DEF8C4F80480BDE8F0815A
:100B8000024817F080FC00BFFCFFFF7F7CDD0108FE
:100B90002DE9F047D0F80090551A876804460E46B4
:100BA0009046A7EB0907BD4221D9284B9D4249D861
:100BB000002D45D0284617F052FCD4F80090A768C5
:100BC0008246A7EB0907B04504D031462A46504675
:100BD00018F0B0F8B9F1000F03D03946484617F0C5
:100BE0003CFC5544C4E900A5A560BDE8F087436816
:100BF000A3EB090295420CD8884504D02A46484602
:100C000018F0A6F863684D449D42EED06560BDE8DB
:100C1000F0878D18A94203D0484618F099F8636808
:100C2000A845A8EB050609D018462946324618F013
:100C30008FF8034633446360BDE8F0870026F9E788
:100C4000AA46C0E7024817F01EFC00BFFCFFFF7F6A
:100C50007CDD010870B5D0E900450646AC420AD0FB
:100C6000236818467BB1A1680C34C91A17F0F5FB4C
:100C7000A542F5D1356825B1B1682846491B17F062
:100C8000ECFB304670BD0C34A542E9D13568F2E783
:100C90002DE9F843D0E900678046BE4200F0998014
:100CA0004036354655E904494C450DD02368184671
:100CB000002B00F08180A1680C34C91A17F0CDFB1D
:100CC000A145F3D155F8109CB9F1000F06D055F8A5
:100CD000081C4846A1EB090117F0BFFB55F81C0C96
:100CE00020B155F8141C091A17F0B7FB55E90A4949
:100CF0004C450CD023681846002B57D0A1680C3403
:100D0000C91A17F0AAFBA145F4D155F8289CB9F1EE
:100D1000000F06D055F8201C4846A1EB090117F03A
:100D20009CFB55E90D494C450BD023681846BBB3D5
:100D3000A1680C34C91A17F090FBA145F5D155F8FC
:100D4000349CB9F1000F06D055F82C1C4846A1EB95
:100D5000090117F082FB55E910494C450BD0236877
:100D60001846BBB1A1680C34C91A17F076FBA1452F
:100D7000F5D155F8409CB9F1000F24D055F8381C36
:100D800048464035A1EB090117F067FBB7421ED07A
:100D9000403687E70C34A145E1D155F8409CEAE79D
:100DA0000C34A145C1D155F8349CCAE70C34A14597
:100DB000A0D155F8289CAAE70C34A1457FF476AF62
:100DC00055F8109C80E7B74205F14005E0D1D8F80E
:100DD00000702FB1D8F808103846C91B17F03DFB3A
:100DE0004046BDE8F88300BF70B5D0E90C46054623
:100DF000B4420BD023681846002B5FD0A1680C3496
:100E0000C91A17F02AFBA642F4D12E6B26B1A96BA2
:100E10003046891B17F021FB686A18B1E96A091A84
:100E200017F01BFBD5E90646B4420BD023681846E1
:100E3000002B48D0A1680C34C91A17F00EFBA6424B
:100E4000F4D1AE6926B1296A3046891B17F005FB3B
:100E5000D5E90346B4420AD0236818464BB3A168CB
:100E60000C34C91A17F0F9FAA642F5D1EE6826B18A
:100E700069693046891B17F0F0FAD5E90046B4429B
:100E80000AD0236818467BB1A1680C34C91A17F040
:100E9000E4FAA642F5D12E6826B1A9683046891B2E
:100EA00017F0DBFA284670BD0C34A642E9D12E6853
:100EB000F2E70C34A642CFD1EE68D8E70C34A64254
:100EC00098D12E6BA2E70C34A642AFD1AE69B9E738
:100ED0002DE9F04F8368A2EB0109056883B007464E
:100EE0000C465B1B164699455ED9844B994500F22A
:100EF0000281B9F1000F00F0F980484617F0AFFA0F
:100F00000190A64231D0019B0C3403F10C05002363
:100F1000A04654E9031245E90333B2EB010B45F84F
:100F2000043C00F0D080764B9B4500F2E2805846AE
:100F300017F095FA034654E90312A2EB010A03EBFA
:100F40000B00914245E9033345F8040C00F0B080F2
:100F50001846524617F0FCFE03460C3546455344EE
:100F600004F10C0445F8143CD1D1D7E90045AC425A
:100F70000BD02068002800F09580A1680C34091A75
:100F800017F06BFAA542F4D13D6825B1B96828463F
:100F9000491B17F062FA019A13464B44C7E9002334
:100FA000BB6003B0BDE8F08FD0F80480A8EB050368
:100FB00099452BD8B9F1000F17DD4FEAA906514B1F
:100FC000A84603FB06F621464046FFF75DFD013EBD
:100FD00004F10C0408F10C08F5D1B9F1000FD7F8B1
:100FE0000480D8BF4FF00C094D44A845D9D02C46F9
:100FF0002068002876D0A1680C34091A17F02DFA61
:101000004445F5D17D6003B0BDE8F08F4FEAA309F8
:101010003C4A002B01EB030A02FB09F90CDD2146D7
:101020002846FFF731FDB9F1010904F10C0405F17F
:101030000C05F4D1D7F8048056452ED00AF10C0ADD
:1010400008F10C040023D146A0465AE9032544E9DF
:101050000333AD1A44F8043C42D0294B9D4248D892
:10106000284617F0FCF903461D4444E9033344F8CD
:10107000045C5AE903129142A2EB010526D01846FE
:101080002A4617F065FE03464E450AF10C0A2B442A
:1010900004F10C0444F8143CD4D1C7F8048003B024
:1010A000BDE8F08F0C34A5427FF463AF3D686CE778
:1010B0005344464505F10C0504F10C0445F8143C75
:1010C0007FF425AF51E7DA465B4638E72B444E45BF
:1010D0000AF10C0A04F10C0444F8143CB2D1DCE728
:1010E0002B46C1E70C34A04582D18BE7CDF80490A4
:1010F00007E717F0C5F9044817F0C5F9F8FFFF7FB7
:10110000FCFFFF7FABAAAAAA7CDD0108814200F0A8
:101110009B802DE9F84FD1E90048066807468368AF
:10112000A8EB04098A469B1B4B4530D34568AB1B93
:101130009945194600F28980B9F1000F16DD4FEA92
:10114000A905764BB04603FB05F521464046FFF75F
:101150009BFC013D04F10C0408F10C08F5D1B9F138
:10116000000F7D68CCBF4B460C231E44AE4209D015
:101170003068002866D0B1680C36091A17F06DF98E
:10118000AE42F5D13E684E447E60BDE8F88FB9F1BD
:10119000000F00F0AB80624B994500F2BC804846DE
:1011A00017F05DF98346A0452FD00C340BF10C05E8
:1011B0000023A24654E9032645E90333B61A45F84D
:1011C000043C00F0A480574B9E4200F2A4803046BD
:1011D00017F045F903461E4445E9033345F8046C0E
:1011E00054E903129142A2EB010600F085801846F3
:1011F000324617F0ADFD0346D04504F10C043344EC
:1012000005F10C0545F8143CD2D1D7E90045AC42B4
:101210000AD0206800286BD0A1680C34091A17F096
:101220001CF9A542F5D13D6825B1B9682846491B8E
:1012300017F013F90BEB0906C7F800B0BE607E602B
:10124000BDE8F88F0C3691E77047002B12DD9B103C
:10125000324D03FB05F521463046FFF715FC013DF5
:1012600004F10C0406F10C06F5D1D7E90065DAE9C2
:101270000048A91B0C4444454BD00C340C350023CA
:10128000A24654E9032645E90333B61A45F8043C5F
:101290002AD0244B9E423ED8304617F0E0F8034651
:1012A0001E4445E9033345F8046C54E903129142A6
:1012B000A2EB01060ED01846324617F049FD034650
:1012C000C24504F10C04334405F10C0545F8143C07
:1012D000D5D157E73344C24504F10C0405F10C05A0
:1012E00045F8143CCBD14DE73346D9E7CB465AE716
:1012F0000C34A5428DD196E73344D04504F10C045B
:1013000005F10C0545F8143C7FF452AF7DE73346F8
:1013100061E74E4438E717F0B3F800BFABAAAAAABA
:10132000F8FFFF7FFCFFFF7F2DE9F04F82467248F8
:10133000894690462DED108B91B0CDF804A006F0B3
:10134000D7FF6E48F0EE409A06F0D2FF6C48B0EE40
:10135000408A06F0CDFF6B48B0EE40AA06F0C8FF09
:10136000F6EE007AB0EE409AB4EEE70AF1EE10FA2B
:1013700000F233879FED647ADFED647A6448E0EE33
:10138000077AC0ED037A17F02FF8F7EE007A614A7A
:10139000B7EE005B604B77EEC87A9FED554B28EEB9
:1013A000277AB7EEC76AA6EE045B26EE056BB7EEAA
:1013B000C66B38EE068A77EE867A28EE088A67EEE4
:1013C000A77A82ED008A554AC2ED007A1A784AB1AE
:1013D00000221A70524B1C7884F001041C70002CFF
:1013E00000F01087B8F1000F46D04D4B0027CDE933
:1013F0000238029B1B78002B54D1019BBE00494A46
:101400001B68127803EB8703D3ED008A69EEA88A84
:10141000002A40F09580B0EEE86ADFED436AF6EE10
:10142000007A9FED467AB4EEE66AF1EE10FAB4EE79
:10143000E79A88BFF0EE478AF1EE10FACDED0C8AFC
:101440001FD83348B0EE680A16F0BEFFDDED0C0A77
:10145000364816F009FF364B1B78FBB920EE0A0A16
:101460000137D9E900233344324482ED000A83ED89
:10147000000A039BBB42BCD111B0BDEC108BBDE890
:10148000F08F0CA92B4816F053FFDDED0C0A27480E
:1014900016F0EAFE264B1B78002BDFD0264805F01D
:1014A000D1F8DBE7019BDDF80C801E687B1CD9E9D5
:1014B000004506EB8701984505EB8700096804EBBA
:1014C000870201601160D7D006EB830205EB830031
:1014D00004EB830101331268984502600A60F3D877
:1014E00011B0BDEC108BBDE8F08F00BFAFF30080F2
:1014F0008AB0E1E995B2F63F0404002474040024A4
:101500003C0400243C07002400781B470000C8422C
:101510007C100024B4100024740700243807002431
:101520000400002406000024FFFF7F7FAC06002497
:101530000500002498100024700900240000000019
:101540005FED027AF0EE686ADFF814A3B0EE674A46
:10155000DAED101A0AF5BF639AED607A0AF584781D
:10156000DAED695A0AF5AB65A1EE874A9AED112AC0
:10157000B0EE677A9AED616A9AED6A5A0AF5967446
:10158000DAED122AA1EEA57A9AED628ADAED6B5AAB
:10159000A2EE064A9AED133A9AED630A9AED6CCAE6
:1015A000DAED143AA2EE057A9AED646A9AED6D1AB4
:1015B000A2EE884ADAED154ADAED65BADAED6E0A7E
:1015C0009AED165AA2EEA57A9AED66BADAED6FAAEE
:1015D000A3EE004ADAED175A9AED678A9AED680A87
:1015E000CAED008AA3EE0C7A9AED72CAA3EE864A7F
:1015F0009AED706AA3EE817AB0EE671AA4EEAB4A58
:10160000DAED73BAA1EE8C1AA4EEA07ADAED710AC3
:10161000A5EE0B4AA2EE2B1AA5EE2A7AA5EE884A71
:10162000A5EE867A9AED186AA6EE004AA6EE207A12
:1016300083ED004AB0EE674A83ED017ADAED740A71
:101640009AED7B7A9AED848AA2EEA01AA1EE874ADF
:10165000DAED85BAB0EE677A9AED7C0ADAED750AB2
:101660009AED86BAA1EE887A9AED7D8AA3EE201AC9
:10167000DAED760AA2EE004A9AED870ADAED7EAA42
:101680009AED7FCAA2EE2B7ADAED88BAA3EEA01A01
:10169000DAED770AA2EE884A9AED788AA2EE8B7A82
:1016A0009AED89BAA4EEA01ADAED790AA3EE2A4AD5
:1016B000DAED81AAA3EE007A9AED800AA5EE081A67
:1016C0009AED828AA3EE8C4A9AED8DCAA3EEAB7A8C
:1016D000DAED8ABAA5EEA01ADAED7A0AA4EE804A0B
:1016E0009AED8B0AA4EE8B7A9AED83BAA6EE201AB5
:1016F000A5EE2A4ADAED8CAAF0EE670AA5EE2B7A5F
:10170000DAED8EBAE1EE8C0A83ED021AA5EE884A74
:101710009AED8F8AA5EE807A9AED900AE2EE2B0A76
:10172000A6EE0B4AA6EE2A7AE2EE880A83ED034A79
:1017300083ED047AB0EE677A9AED91CAE3EE000A7F
:101740009AED964A9AED9F0AA1EE847ADAEDA0AA64
:10175000B0EE674A9AED971A9AEDA8BADAED98BA00
:10176000A1EE804A9AEDA10AEBEE217A9AEDA9BA90
:10177000A2EE017A9AED998AF0EE601A9AEDA31A18
:10178000DAED920AA2EE2A4ADAEDA2AAEBEE027A8A
:101790009AEDAA2AA2EEAB7A9AEDA4BAE3EE8C1ADD
:1017A0009AED9ACADAED93BAA2EE804A9AED9B0AB4
:1017B000E2EE227ADAEDAB2AA3EE087A9AED9C8A61
:1017C000E4EEA01ADAEDA50A9AEDA62AA3EE2A4ABB
:1017D000DAED94AAE2EE837ADAED9E2AA3EE8C7A11
:1017E0009AEDACCAE5EE2B1A9AEDA73ADAED95BA66
:1017F000A3EE814A9AED9D1AECEE237AA4EE807A4C
:101800009AEDAD0AE5EEAA1AA4EE8B4AE0EE247A30
:10181000A5EE087AF0EE613AA5EE204AE6EE2B3A04
:10182000A5EE817AF0EE444AC3ED053AA6EE227A9F
:10183000E5EE824A83ED067AE6EE034AC3ED074AF7
:101840009AEDAE4ADAEDAF4AE4EE057A9AEDB07A57
:10185000E4EEA57AE7EE067AC3ED087A06E000BF6B
:10186000B009002400000000DAED006A2B46B8EC55
:10187000017A043593ED000AD3ED287A77EE807A69
:10188000E7EE267AB1EE670A16F038FFB7EE007A77
:10189000444570EE077AC7EE276AC5ED276AE3D1A3
:1018A0005FED107A9AED102AF0EE676A9AEDB27A3F
:1018B0009AEDBB6ADAED112AE7EE026ADAEDB34A75
:1018C000B0EE677A9AEDBC5A9AED123A9AEDB48A64
:1018D000A2EE067ADAEDBD5ADAED133AE4EEA26A28
:1018E0009AEDB56ADAEDBE0A9AED144A9AEDB61A87
:1018F000A5EE227A9AEDBFCADAED154AE8EE036A40
:101900009AEDB70ADAEDC01A9AED165ADAEDB8BABE
:10191000A5EE837A9AEDC1BADAED175AE6EE236A9C
:10192000DAEDB9AA9AEDC28A9AED186AFA4CA3EEDA
:10193000A07ADAEDBA0AA4F50872A4F59E68E4EE7E
:10194000016A9AEDC31AA4F1A00BA4F2CC45A4EE4F
:101950000C7A9AEDC4CAE0EE246A9AEDC50AA4EEA8
:10196000A17AF0EE671AEBEE856AE2EE0C1AA5EEAC
:101970000B7AEAEEA56AE2EE801A9AEDC60AA5EEA7
:10198000887AE0EE866AE3EE001AA6EE017AC4EDEC
:10199000006AF0EE676A84ED017ADAEDC70A9AED23
:1019A000CD7A9AEDD60AE3EEA01AE2EE076A9AED36
:1019B000CECAB0EE677A9AEDD71A9AEDCF8ADAEDF1
:1019C000C8BAA2EE007A9AEDD80AE4EE2B1A9AED84
:1019D000D0BAE2EE8C6ADAEDC9AADAEDD10ADAED14
:1019E000D2BAA2EE817A9AEDD91AE4EEAA1ADAED09
:1019F000DBAAE3EE086A9AEDDA8AA3EE007A9AEDA2
:101A0000CA0AE3EE8B6A9AEDD3BAE5EE001A9AEDB4
:101A1000CB0AA3EE817A9AEDDC1AE4EE206ADAEDC5
:101A2000DD0AE5EE801A9AEDDE0AA4EE087A9AED58
:101A3000CC8AE4EEAB6ADAEDDFBAE6EE081A9AED8C
:101A4000D48AA4EEAA7ADAEDD5AAE5EE0B6A9AED6D
:101A5000E1BAC4ED021AF0EE671AA5EE017A9AED2A
:101A6000E01AE2EE2B1AE5EE886A9AEDE28AA5EE1C
:101A7000A07ADAEDE30AE2EE811AE6EE2A6AB0EE27
:101A8000671AA6EE007AC4ED036A84ED047A9AED33
:101A9000E40ADAEDE86A9AEDE97AA2EE261A9AEDFE
:101AA000FACAF0EE676ADAEDF1AAECEE027ADAED44
:101AB000F2BAE2EE2A6ADAEDEAAAA2EE871AB0EEEC
:101AC000617AF0EE671AA3EE0B7A9AEDEBBAE2EECA
:101AD000AB6ADAEDF3BAB0EE412A9AEDFB1AA3EE47
:101AE0002A2ADAEDECAAF0EE477AB0EE617ADAED66
:101AF000FC1AE3EE2B6ADAEDF4BAE3EE887A9AED9B
:101B0000F68AA1EE227ADAEDF52A9AEDED1AE3EEE5
:101B1000AB6ADAEDFDBAE4EE207ADAEDEE0AA1EE78
:101B2000837ADAEDF71AB0EE423A9AEDE62AA3EE9E
:101B30008B3A9AEDE5BAE4EE226ADAEDF02AABEEE2
:101B4000A37ADAEDFE3AE4EE807ADAEDFFBA9AEDA6
:101B5000F80AA4EE2A3ADAEDEFAAE4EE886AA3EED8
:101B6000847ADAEDF93AE5EE0B7AB0EE434A9AED73
:101B7000E73AE5EE216AABEEA47AA4EE814AE5EEFF
:101B8000827AE5EE806AF0EE444AE6EE037AE5EE0C
:101B9000204AE6EE236AC4ED057AF0EE477AE5EED8
:101BA000AA4AC4ED076AD2ED006AA4F50772E6EE10
:101BB000857AE6EE224AC4ED064A92ED007AA4F553
:101BC0000672E7EE257A92ED007AE7EE067AC4ED2A
:101BD000087A5B46F8EC016A9AED007AB7EE008A63
:101BE00093ED000A0BF1040BD3ED287A77EE807A9F
:101BF000E6EE877AB1EE670A16F080FD70EE087A9D
:101C0000A84588EE277A8BED277AE2D1DFED437A7B
:101C1000434DB0EE674A9AED107AF0EE67DA95ED33
:101C2000002AD5ED093AB0EE67DAA2EE074A9AED3E
:101C300011FAE3EE87DA95ED013AD5ED0A2AF0EED6
:101C400067CADAED12EAB0EE67CAD5ED020AF0EE25
:101C500067BA95ED0B1AB0EE67BAA3EE0F4A9AED8C
:101C600013EAE2EE8FDA95ED032AD5ED0C1ADAEDE0
:101C7000144AD5ED043A95ED0D3AA0EEAE4A9AED30
:101C8000155AE1EE2EDAD5ED0E2AD5ED050ADAED7C
:101C9000165A95ED061A9AED176AA2EE0E4A95EDC0
:101CA000072AE1EE8EDAD5ED0F1ADAED186AA3EE07
:101CB000A44AD5ED103AE3EE24DA95ED113AA0EE00
:101CC000854AD5ED120AE2EE85DAD5ED082AA0EEB6
:101CD00087DAA1EE254AE1EEA5DAA2EE064A95EDF5
:101CE000132AE3EE86DAD5ED143AA2EE0FDAA2EE6D
:101CF000A64AE3EE26DAA3EEAEDA85ED8E4AC5ED0E
:101D00008FDA95ED152A95ED1B3AD5ED242AA2EE32
:101D10000EDAE3EE07CA05E0D00F00240000000051
:101D2000C00D0024D5ED1C3AA7EE22CA95ED253A48
:101D3000D5ED1D2A95ED172AEFEE23CAD5ED263AEB
:101D4000AFEE03CA95ED273AEEEEA2CAD5ED1E2AF4
:101D5000AEEEA3CAD5ED163AA3EEA4DAD5ED203A3D
:101D6000EEEE22CAD5ED182AAEEE03CA95ED1F3A63
:101D7000A2EE05DA95ED192AE4EE83CA95ED213A33
:101D8000A2EEA5DAD5ED282AA4EEA2CAD5ED2A2A1C
:101D9000E5EE23CAD5ED223AA2EE06DA95ED1A2A2F
:101DA000E5EE83CA95ED293AA5EE03CA95ED233AEF
:101DB000A2EE26DA95ED2D2AE7EE02BAE6EE23CA68
:101DC000D5ED2B3AA5EEA2CAD5ED2C2A85ED90DAF9
:101DD000E6EE83CA95ED2F3AA6EE23CAD5ED2E3A4C
:101DE000E3EE8FBAD5ED303AC5ED91CAA6EEA2CAA0
:101DF000D5ED312AE3EE2EBA85ED92CAE3EE8EBA26
:101E0000D5ED323A95ED333AD5ED361A95ED372AC0
:101E10008DED0B7ACDED0A4AE2EEA4BAD5ED342A67
:101E20008DED095AE3EE85BAF0EE673AE1EE873AB6
:101E3000E3EE25BA95ED353AE2EE0F3AE2EE86BAD8
:101E4000D5ED3F2AA7EE22BAE3EE26BA95ED403A49
:101E5000A3EE0FBA95ED413AC5ED93BAA3EE2EBAB3
:101E600095ED423AA3EE0EBA95ED433AA3EE24BAAD
:101E700095ED443AA3EE05BA95ED453AA3EE25BAA1
:101E800095ED463AA3EE06BA95ED473AA3EE26BA8B
:101E900095ED483AE3EE077A95ED383A85ED95BA37
:101EA000F0EE67AAD5ED497AE7EE8FAAD5ED4A7A2A
:101EB000E7EEAEAAD5ED4B7AE7EE8EAAD5ED4C7AD9
:101EC000E7EEA4AAD5ED4D7AE7EE85AAD5ED4E7AD8
:101ED000E7EEA5AAF0EE637AD5ED393AE3EE2E7A75
:101EE000E3EE8E7AD5ED3A3AE3EEA47AD5ED3B3ABD
:101EF000E3EE857AD5ED3C3ACDED085A95ED660ACC
:101F0000DAED00FA8DED076ACDED066AE3EEA57A0B
:101F1000D5ED3D3AE3EE867AD5ED3E3AE3EEA67A8C
:101F2000D5ED4F3AE3EE86AAD5ED503AC5ED947A59
:101F3000CDED047AE3EEA6AAD5ED703A34EE234A4D
:101F4000D4ED003AA3EE840A9AED564AC5ED96AA5E
:101F5000A4EE2F0A16F0A8FC95ED714A85ED980ABB
:101F60007DEE84DA8DED050A94ED014A95ED670A60
:101F7000A4EE2D0A9AED574AAFEE840A16F094FCAF
:101F800095ED724AF0EE40DA85ED990A3DEE04DAFD
:101F900095ED680A94ED024AA4EE0D0A9AED584AAE
:101FA000AFEE840A16F080FC95ED734AB0EE40DA8D
:101FB00085ED9A0A7CEE84CA95ED690A94ED034A90
:101FC000A4EE2C0A9AED594AAFEE840A16F06CFC86
:101FD00095ED744AF0EE40CA85ED9B0A3CEE04CACA
:101FE00095ED6A0A94ED044AA4EE0C0A9AED5A4A59
:101FF000AFEE840A16F058FC95ED754AB0EE40CA73
:1020000085ED9C0A7BEE84BA94ED054A95ED6B0A4A
:10201000A4EE2B0A9AED5B4AAFEE840A16F044FC5C
:1020200095ED764ADDED047AF0EE40BA85ED9D0A35
:1020300077EE847A95ED6C0A94ED064AA4EE270AB1
:10204000DAED5C7AAFEEA70A16F02EFC95ED774A32
:1020500085ED9E0A3BEE04BA8DED040A94ED074A25
:1020600095ED6D0AA4EE0B0A9AED5D4AAFEE840A77
:1020700016F01AFC95ED783A94ED084AB0EE40BAA5
:102080007AEE83AA85ED9F0A95ED6E0AA4EE2A0AE0
:102090009AED5E4AAFEE840A16F006FCD5ED7AAAF8
:1020A0009DED0B7ADDED053A2AEE877A95ED7E2AD5
:1020B00078EE6AAAD5ED7F2A95ED803AD5ED7B0AB8
:1020C00095ED7C1AAAEEA37AD5ED7D1A78EE433A07
:1020D000DDED0A4A20EE8FFA9DED095A78EE600A8E
:1020E00085EDA00A61EE2EEADDED085A38EE411AC0
:1020F000DDED047AA0EEADFA63EE255A9AED063ACC
:10210000E1EE0DEA9AED071A21EE8EEA9DED076ADF
:10211000E3EEA75ADAED057A78EE611AD5ED813A49
:10212000E3EE077A9AED0B3A62EE244ADDED066A99
:10213000A1EEACEA8AED107A78EE421A95ED827A39
:1021400038EE622A544A22EE855ADAED0A2AE1EE86
:102150000F7A9AED0E1AE1EE8C4ADAED091AA2EE28
:102160002B5A9AED082A78EE630A8AED11FA23EECB
:10217000866ADAED0C3A38EE478ACAED12EAE2EEE8
:102180002E7A8AED13EAA0EE8B6ADAED0D0A67EE7D
:10219000266A92ED007ACAED144A8AED155AE8EEE5
:1021A000006ACAED165AE1EE8E7A8AED176ACAED18
:1021B000186AE2EEA47AE3EE057AE3EEA57AE0EEA1
:1021C000867AE1EE267A78EEA78ACAED047ACAED1D
:1021D000027A68EE878AFFF71EB9B7EEC06A2F4809
:1021E000B6EE004B9FED285B36EE446B9FED287BEF
:1021F000A6EE057BB7EEC77B80ED037A16F0A8F854
:10220000FFF7C3B821462422254816F0BBFD254B15
:10221000002000211E68244B1D6805EB4505AF001A
:1022200006EB8505F2596B680E949C1ACDE90C01FA
:1022300025D01E4B9C4224D8204616F010F90346A8
:102240001C440E94CDE90C33F1596A689142A2EB1B
:10225000010404D01846224616F07AFD03462344B2
:1022600013480CA90D9304F02FFB0C9800283FF4A1
:10227000B9A80E99091A16F0F0F8FFF7B3B823467B
:10228000DEE716F0FDF800BF000000000000894006
:102290000000000000004440741000249810002446
:1022A000F009002418090024A4090024FCFFFF7F82
:1022B000700900242DE9F84FD1E9002400230F46CE
:1022C000A41A06468360C0E9003300F07C81C44B49
:1022D0009C4200F28281204616F0C1F881464C44AF
:1022E000C6E90099B460D7E9003A534530D003F10C
:1022F0000C0B09F10C040023D846A1465BE9032529
:1023000044E90333AD1A44F8043C00F05481B54B62
:102310009D4200F26281284616F0A1F803461D4452
:1023200044E9033344F8045C5BE903129142A2EBF5
:10233000010500F0158118462A4616F009FD0346EE
:102340000C34C2452B440BF10C0B44F8143CD2D195
:10235000FA680023C6F804903C697361A41AC6E9C0
:10236000033300F032819E4B9C4200F236812046BE
:1023700016F075F881464C44C6E903997461D7E9B3
:10238000033A534530D003F10C0B09F10C04002340
:10239000D846A1465BE9032544E90333AD1A44F866
:1023A000043C00F00A818F4B9D4200F216812846C2
:1023B00016F055F803461D4444E9033344F8045C21
:1023C0005BE903129142A2EB010500F0D4801846AC
:1023D0002A4616F0BDFC03460C34C2452B440BF1D3
:1023E0000C0B44F8143CD2D1BA690023C6F8109003
:1023F000FC693362A41AC6E9063300F0E880784B22
:102400009C4200F2EA80204616F029F881464C44AE
:10241000C6E906993462D7E9063A534530D003F14C
:102420000C0B09F10C040023D846A1465BE90325F7
:1024300044E90333AD1A44F8043C00F0C080694B12
:102440009D4200F2CA80284616F009F803461D4452
:1024500044E9033344F8045C5BE903129142A2EBC4
:10246000010500F0938018462A4616F071FC0346D9
:102470000C34C2452B440BF10C0B44F8143CD2D164
:102480000023D7E90924C6F81C90A41AF362C6E910
:10249000093300F09E80534B9C4200F29E80204600
:1024A00015F0DDFF03461C44C6E90933F462D7E9A1
:1024B00009108142A0EB010504D018462A4616F007
:1024C00047FC03467C6B2B443A6BB3620023A41A8F
:1024D000B363C6E90C337ED0414B9C427DD8204685
:1024E00015F0BDFF81464C44C6E90C99B463D7E9A9
:1024F0000C3A53452DD003F10C0B09F10C040023C9
:10250000D846A1465BE9032544E90333AD1A44F8F4
:10251000043C56D0334B9D425FD8284615F09FFFB0
:1025200003461D4444E9033344F8045C5BE90312A9
:102530009142A2EB010534D018462A4616F008FC59
:1025400003460C34C2452B440BF10C0B44F8143CED
:10255000D5D1FB6B3046C6F83490F363BDE8F88FF5
:102560002B44C24504F10C040BF10C0B44F8143C51
:102570007FF4C1AEECE62B44C24504F10C040BF130
:102580000C0B44F8143C7FF402AF2DE72B44C245FA
:1025900004F10C040BF10C0B44F8143C7FF443AF32
:1025A0006EE72B44C24504F10C040BF10C0B44F80C
:1025B000143CA4D1CDE72B46B1E62B46FBE62B46D7
:1025C00045E72B46ADE7A14689E6A146D3E6A146FD
:1025D0001DE7234667E7A14685E715F051FF00BFD9
:1025E000F8FFFF7FFCFFFF7F2DE9F04FADF20C7D80
:1025F000CF496C22002531A8DFF8748316F09AFBCE
:10260000002300226C200495CDE9022315F027FF5A
:1026100004466C2231A96C340290049416F08AFBB3
:10262000D8F808300394D8F800401B1B0B2B02F29B
:1026300001820C2015F013FF06468560C0E90055A5
:10264000DDE90210441A02F0A584BA4B9C4202F262
:10265000E884204615F003FF0346DDE90210451A21
:102660001C448842B460C6E9003304D018462A46A8
:1026700016F06EFB03462B4406F10C07D8E9004523
:102680007360AC420CD02068002802F0DD80A168A5
:102690000C34091A15F0E1FEA542F4D1D8F8005027
:1026A0002DB1D8F808102846491B15F0D6FEC8F8F9
:1026B0000870C8E90067029818B10499091A15F062
:1026C000CCFE4CAC00274FF0000A4FF0000B6C2200
:1026D000994968A80DF5A16516F02CFBA7606C2040
:1026E00067AECDE94CAB15F0BAFE00F16C096C2277
:1026F00068A9C4F80890206016F01CFB6C228F4972
:1027000083A8C4F8049016F015FB67616C20C4E937
:10271000037715F0A4FE00F16C096C2283A9C4F8BC
:102720001490E06016F006FB6C2285499EA8C4F860
:10273000109016F0FFFA6C20CDE952AB276215F02D
:102740008EFE00F16C096C229EA9C4F82090A06155
:1027500016F0F0FA6C227B49B9A8C4F81C9016F068
:10276000E9FAE7626C20C4E9097715F078FE00F118
:102770006C096C22B9A9C4F82C90606216F0DAFAE0
:102780006C227149D4A8C4F8289016F0D3FA6C20B2
:10279000CDE958ABA76315F062FE00F16C096C221D
:1027A000D4A9C4F83890206316F0C4FA6C226749A3
:1027B000EFA8C4F8349016F0BDFA67646C20C4E941
:1027C0000F7715F04CFE00F16C096C22EFA9C4F8EC
:1027D0004490E06316F0AEFA6C225D490DF5856019
:1027E000C4F8409016F0A6FA6C20CDE95EAB2765E0
:1027F00015F035FE00F16C096C220DF58561C4F809
:102800005090A06416F096FA6C2252490DF5936030
:10281000C4F84C9016F08EFAE7656C20C4E9157781
:1028200015F01DFE00F16C096C220DF593616065D9
:10283000C4F85C9016F07EFA6C2247492846C4F82A
:10284000589016F077FA6C20CDE964ABA76615F0C6
:1028500006FE07466C2229466C372066A76616F0EE
:1028600069FA324621463D486766FEF731FB56F865
:102870000C0D002801F0A487B168091A15F0EDFDD0
:10288000A642F4D1002300220DF59361DFF8E4C0E5
:10289000CDF8A03400232E460DF5A567C1E900232D
:1028A000BCE80F000FC6BCE80F000FC6DCF8003014
:1028B0002420336015F0D3FDAE4600F1240906460E
:1028C000CDF89804CDF8A094F44610360EF1100E11
:1028D000BCE80F00BC4546F8100C46F80C1C46F846
:1028E000082C46F8043CEFD1DEF800000DF59361AA
:1028F0000DF2A44230601A48CDF89C94FEF7E8FA35
:10290000DDF8980420B1DDF8A014091A15F0A5FD32
:10291000144B0DF20C52294613482B604FF000095E
:10292000FEF736F96C2211490DF5936024E000BFE3
:10293000BCA00108FCFFFF7F28A1010894A10108A9
:1029400000A201086CA20108D8A2010844A3010852
:10295000B0A301081CA4010888A40108B80400243D
:10296000C4040024E9B08E3DD004002418A5010859
:10297000AC040024F4A4010816F0DCF900230022C2
:102980000DF58561CDF830946C20C1E9002315F078
:1029900066FD06466C220DF593616C36CDF8280471
:1029A000CDF8306416F0C6F96C22D6492846CDF829
:1029B0002C6416F0BFF96C20CDF83494CDF838941F
:1029C000CDF83C9415F04BFD06466C222946CDF817
:1029D00034046C36CDF83C6416F0ACF9CA480DF5F9
:1029E00088620DF58561CDF83864FEF771FADDF87F
:1029F000340420B1DDF83C14091A15F02EFDDDF881
:102A0000280420B1DDF83014091A15F026FDBF4B5B
:102A10006C22BF492046C8F83C304FF0000916F040
:102A200089F9002300226C20CDF82090CDE90623FF
:102A300015F015FD06466C2221466C360690089668
:102A400016F078F9B34B07961E689B689B1B0B2BFF
:102A500001F2CB870C2015F002FD8046C0F80890EB
:102A6000DDE90612C0E90099561A02F0D282AA4B9B
:102A70009E4202F2D682304615F0F1FC0346DDE9B3
:102A80000612A2EB01091E448A42C8F80860C8E990
:102A9000003304D018464A4616F05AF903464B4410
:102AA00008F10C09C8F804309A4BD3E9006A56457E
:102AB0000DD03068002801F0CF86B1680C36091AB5
:102AC00015F0CBFC5645F4D1924BD3F800A0BAF1E7
:102AD000000F06D08F4B50469968A1EB0A0115F004
:102AE000BCFC8C4BC3E90089C3F80890069818B168
:102AF0000899091A15F0B1FC16AE4FF000084FF016
:102B0000000A4FF0000B6C22844968A816F012F9F5
:102B1000C6F808806C20C6E900AB15F0A0FC00F1F7
:102B20006C096C2268A9C6F80890306016F002F9AA
:102B30006C227B4983A8C6F8049016F0FBF8C6F80F
:102B400014806C20C6E9038815F089FC00F16C093B
:102B50006C2283A9C6F81490F06016F0EBF86C2292
:102B600070499EA8C6F8109016F0E4F8C6F82080C8
:102B70006C20C6E906AB15F072FC00F16C096C2202
:102B80009EA9C6F82090B06116F0D4F86C22664970
:102B9000B9A8C6F81C9016F0CDF8C6F82C806C20A9
:102BA000C6E9098815F05BFC00F16C096C22B9A933
:102BB000C6F82C90706216F0BDF86C225B49D4A860
:102BC000C6F8289016F0B6F8C6F838806C20C6E92A
:102BD0000CAB15F044FC00F16C096C22D4A9C6F8CA
:102BE0003890306316F0A6F86C225149EFA8C6F869
:102BF000349016F09FF8C6F844806C20C6E90F8820
:102C000015F02DFC00F16C096C22EFA9C6F8449078
:102C1000F06316F08FF86C2246490DF58560C6F812
:102C2000409016F087F8C6F850806C20C6E912ABC9
:102C300015F015FC00F16C096C220DF58561C6F8E4
:102C40005090B06416F076F86C223B490DF5936015
:102C5000C6F84C9016F06EF8C6F85C806C20C6E999
:102C6000158815F0FCFB00F16C096C220DF59361E1
:102C70007065C6F85C9016F05DF86C222F49284606
:102C8000C6F8589016F056F8C6F868806C20C6E969
:102C900018AB15F0E4FB00F16C086C222946C6F86D
:102CA0006880306616F046F81A4BC6F86480D3F890
:102CB0000C805B69A3EB08036B2B01F2DC866C20B4
:102CC0000DF1640A15F0CBFB034600F10C080190EE
:102CD0007833009300235AE9031248E90333B2EB37
:102CE000010948F8043C01F07C860B4B994502F23F
:102CF0009881484615F0B3FB03465AE90312A2EB4C
:102D0000010B1DE084A50108DC0400246666663F13
:102D1000F0A50108EC040024FCFFFF7F5CA601087D
:102D2000C8A6010834A70108A0A701080CA801083B
:102D300078A80108E4A8010850A90108BCA9010865
:102D400003EB0900914248F8040C48E9033301F011
:102D50008C8518465A4615F0FBFF034608F10C080F
:102D60000AF10C0A5B4448F8143C009B9845B1D129
:102D7000D94BD3E90389C84510D0D8F80000002802
:102D800001F08085D8F8081008F10C08091A15F030
:102D900064FBC845F1D1D04BD3F80C90B9F1000FCA
:102DA00006D0CD4B48465969A1EB090115F055FBFA
:102DB000C94A019BD3606C33C2E904330DF1C408E6
:102DC00058F80C0D002801F00085D8F80810091AF1
:102DD00015F043FBB045F3D1002300220DF59361BC
:102DE000DFF83CC3CDF8A03400232E46C1E9002310
:102DF000BCE80F000FC6BCE80F000FC6DCF80030BF
:102E00002420336015F02BFBAE4600F12408064663
:102E1000CDF89804CDF8A084F44610360EF1100ECB
:102E2000BCE80F00BC4546F8100C46F80C1C46F8F0
:102E3000082C46F8043CEFD1DEF800000DF2A44265
:102E40000DF593613060A548CDF89C84FEF740F8FD
:102E5000DDF8980420B1DDF8A014091A15F0FDFA88
:102E60009F4B0DF20C5229469E482B604FF00008F4
:102E7000FDF78EFE6C229C490DF5936015F05AFF0C
:102E8000002300220DF58561CDF830846C20C1E966
:102E9000002315F0E4FA06466C220DF593616C36BA
:102EA000CDF82804CDF8306415F044FF6C228F492A
:102EB0002846CDF82C6415F03DFF6C20CDF8348405
:102EC000CDF83884CDF83C8415F0C9FA06466C225A
:102ED0002946CDF834046C36CDF83C6415F02AFF51
:102EE00083480DF588620DF58561CDF83864FDF7EE
:102EF000EFFFDDF8340420B1DDF83C14091A15F0B9
:102F0000ACFADDF8280420B1DDF83014091A15F008
:102F1000A4FA784B2846704A7749D3636C2215F09F
:102F200009FF002300220DF59361CDF8A0340023A2
:102F30006C20C1E9002315F092FA06466C2229465E
:102F40006C36CDF89804CDF8A06415F0F3FE6B480C
:102F50000DF2A4420DF59361CDF89C64FDF7B8FF26
:102F6000DDF8980420B1DDF8A014091A15F075FAFF
:102F70004FF000084FF0000A4FF0000B6C22604940
:102F800068A815F0D7FEC4F808806C2067AECDE9BC
:102F90004CAB15F064FA00F16C096C2268A9C4F816
:102FA0000890206015F0C6FE6C22564983A8C4F82C
:102FB000049015F0BFFEC4F814806C20C4E90388A7
:102FC00015F04DFA00F16C096C2283A9C4F8149035
:102FD000E06015F0AFFE6C224B499EA8C4F810903B
:102FE00015F0A8FE6C20CDE952ABC4F8208015F096
:102FF00036FA00F16C096C229EA9C4F82090A061F9
:1030000015F098FE6C224149B9A8C4F81C9015F03F
:1030100091FEC4F82C806C20C4E9098815F01FFAD1
:1030200000F16C096C22B9A9C4F82C90606215F00B
:1030300081FE6C223649D4A8C4F8289015F07AFE97
:103040006C20CDE958ABC4F8388015F008FA00F1CF
:103050006C096C22D4A9C4F83890206315F06AFE7C
:103060006C222C49EFA8C4F8349015F063FEC4F824
:1030700044806C20C4E90F8815F0F1F900F16C0967
:103080006C22EFA9C4F84490E06315F053FE6C2263
:1030900021490DF58560C4F8409015F04BFE6C2079
:1030A000CDE95EABC4F8508015F0D9F900F16C0998
:1030B0006C220DF58561C4F85090A06415F03AFEBD
:1030C0006C2216490DF59360C4F84C9015F032FE51
:1030D000C4F85C806C2025E0EC0400240405002486
:1030E0008C71A1BE100500244CAA0108B8AA0108E1
:1030F0001C0500246666663F24AB01082C050024ED
:1031000090AB0108FCAB010868AC0108D4AC010825
:1031100040AD0108ACAD010818AE010884AE01084D
:1031200028AA0108C4E9158815F099F900F16C097D
:103130006C220DF593616065C4F85C9015F0FAFDA2
:103140006C22DD492846C4F8589015F0F3FD6C2038
:10315000CDE964ABC4F8688015F081F900F16C0822
:103160006C2229462066C4F8688015F0E3FD3246DB
:103170002146D248C4F86480FDF7AAFE56F80C0D2B
:10318000002801F02783B168091A15F066F9A642F4
:10319000F4D1002300220DF59361DFF870C3CDF860
:1031A000A03400232E46C1E90023BCE80F000FC65F
:1031B000BCE80F000FC6DCF800302420336015F0A7
:1031C0004EF9AE4600F124080646CDF89804CDF835
:1031D000A084F44610360EF1100EBCE80F00BC457A
:1031E00046F8100C46F80C1C46F8082C46F8043C2F
:1031F000EFD1DEF800000DF2A4420DF593613060CE
:10320000AF48CDF89C84FDF763FEDDF8980420B14B
:10321000DDF8A014091A15F020F9AA4B0DF20C5292
:103220002946A9482B604FF00008FDF7B1FC6C223D
:10323000A6490DF5936015F07DFD002300220DF5E4
:103240008561CDF830846C20C1E9002315F007F9C1
:1032500006466C220DF593616C36CDF82804CDF846
:10326000306415F067FD6C2299492846CDF82C642E
:1032700015F060FD6C20CDF83484CDF83884CDF89D
:103280003C8415F0ECF806466C222946CDF834044F
:103290006C36CDF83C6415F04DFD8E480DF5886216
:1032A0000DF58561CDF83864FDF712FEDDF83404C4
:1032B00020B1DDF83C14091A15F0CFF8DDF8280428
:1032C00020B1DDF83014091A15F0C7F8824B2846F2
:1032D000824A8349DA636C2215F02CFD0023002218
:1032E0000DF59361CDF8A03400236C20C1E90023D3
:1032F00015F0B5F806466C2229466C36CDF89804D0
:10330000CDF8A06415F016FD76480DF2A4420DF537
:103310009361CDF89C64FDF7DBFDDDF8980420B1E6
:10332000DDF8A014091A15F098F84FF000084FF0D6
:10333000000A4FF0000B6C226B4968A815F0FAFCEC
:10334000C4F808806C2067AECDE94CAB15F087F867
:1033500000F16C096C2268A9C4F80890206015F08F
:10336000E9FC6C22614983A8C4F8049015F0E2FCE2
:10337000C4F814806C20C4E9038815F070F800F1DB
:103380006C096C2283A9C4F81490E06015F0D2FC9B
:103390006C2257499EA8C4F8109015F0CBFC6C2005
:1033A000CDE952ABC4F8208015F059F800F16C0952
:1033B0006C229EA9C4F82090A06115F0BBFC6C2281
:1033C0004C49B9A8C4F81C9015F0B4FCC4F82C8082
:1033D0006C20C4E9098815F042F800F16C096C22F0
:1033E000B9A9C4F82C90606215F0A4FC6C22424983
:1033F000D4A8C4F8289015F09DFC6C20CDE958ABFA
:10340000C4F8388015F02BF800F16C096C22D4A9AF
:10341000C4F83890206315F08DFC6C223749EFA872
:10342000C4F8349015F086FCC4F844806C20C4E9DC
:103430000F8815F014F800F16C096C22EFA9C4F89C
:103440004490E06315F076FC6C222D490DF5856003
:10345000C4F8409015F06EFC6C20CDE95EABC4F86A
:10346000508014F0FCFF00F16C096C220DF58561B1
:10347000C4F85090A06415F05DFC6C2221490DF554
:103480009360C4F84C9015F055FCC4F85C806C2037
:10349000C4E9158814F0E3FF00F16C096C220DF506
:1034A00093616065C4F85C9015F044FC6C22164989
:1034B0002846C4F858902BE0F0AE010838050024E7
:1034C00044050024A107A0BE5005002480AF0108D8
:1034D000ECAF01085C0500242C0500249A99193FE3
:1034E00058B001086C050024C4B0010830B10108CF
:1034F0009CB1010808B2010874B20108E0B20108E9
:103500004CB30108B8B3010824B401085CAF01084A
:1035100015F010FC6C20CDE964ABC4F8688014F0A1
:103520009EFF00F16C086C2229462066C4F8688072
:1035300015F000FC32462146DC48C4F86480FDF7F3
:10354000C7FC56F80C0D002801F04981B168091A32
:1035500014F083FFA642F4D1002300220DF59361FD
:10356000DFF89CC3CDF8A03400232E46C1E9002328
:10357000BCE80F000FC6BCE80F000FC6DCF8003037
:103580002420336014F06BFFAE4600F12408064699
:10359000CDF89804CDF8A084F44610360EF1100E44
:1035A000BCE80F00BC4546F8100C46F80C1C46F869
:1035B000082C46F8043CEFD1DEF800000DF2A442DE
:1035C0000DF593613060BA48CDF89C84FDF780FC1E
:1035D000DDF8980420B1DDF8A014091A14F03DFFBD
:1035E000B44B0DF20C522946B3482B604FF0000843
:1035F000FDF7CEFA6C22B1490DF5936015F09AFBF8
:10360000002300220DF58561CDF830846C20C1E9DE
:10361000002314F024FF06466C220DF593616C36EE
:10362000CDF82804CDF8306415F084FB6C22A44951
:103630002846CDF82C6415F07DFB6C20CDF8348441
:10364000CDF83884CDF83C8414F009FF06466C228E
:103650002946CDF834046C36CDF83C6415F06AFB8D
:1036600098480DF588620DF58561CDF83864FDF751
:103670002FFCDDF8340420B1DDF83C14091A14F0F5
:10368000ECFEDDF8280420B1DDF83014091A14F03E
:10369000E4FE8D4B28468D4A8D49DA636C2215F085
:1036A00049FB002300220DF59361CDF8A0340023DF
:1036B0006C20C1E9002314F0D2FE06466C22294694
:1036C0006C36CDF89804CDF8A06415F033FB814832
:1036D0000DF2A4420DF59361CDF89C64FDF7F8FB63
:1036E000DDF8980420B1DDF8A014091A14F0B5FE35
:1036F0004FF000084FF0000A4FF0000B6C227649A3
:1037000068A815F017FBC4F808806C2067AECDE9F7
:103710004CAB14F0A4FE00F16C096C2268A9C4F84B
:103720000890206015F006FB6C226C4983A8C4F851
:10373000049015F0FFFAC4F814806C20C4E90388E3
:1037400014F08DFE00F16C096C2283A9C4F814906A
:10375000E06015F0EFFA6C2261499EA8C4F8109061
:1037600015F0E8FA6C20CDE952ABC4F8208014F0D3
:1037700076FE00F16C096C229EA9C4F82090A0612D
:1037800015F0D8FA6C225749B9A8C4F81C9015F066
:10379000D1FAC4F82C806C20C4E9098814F05FFECB
:1037A00000F16C096C22B9A9C4F82C90606215F084
:1037B000C1FA6C224C49D4A8C4F8289015F0BAFA82
:1037C0006C20CDE958ABC4F8388014F048FE00F105
:1037D0006C096C22D4A9C4F83890206315F0AAFAB9
:1037E0006C224249EFA8C4F8349015F0A3FAC4F84B
:1037F00044806C20C4E90F8814F031FE00F16C099C
:103800006C22EFA9C4F84490E06315F093FA6C229F
:1038100037490DF58560C4F8409015F08BFA6C209F
:10382000CDE95EABC4F8508014F019FE00F16C09CC
:103830006C220DF58561C4F85090A06415F07AFAF9
:103840006C222C490DF59360C4F84C9015F072FA77
:10385000C4F85C806C20C4E9158814F000FE00F107
:103860006C096C220DF593616065C4F85C9015F0ED
:1038700061FA6C2220492846C4F8589015F05AFA8B
:103880006C20CDE964ABC4F8688014F0E8FD00F169
:103890006C086C2229462066C4F8688015F04AFA44
:1038A000324621461548C4F864802BE07805002490
:1038B00084050024740E23BC90050024B4B40108D0
:1038C00020B501089C0500246C0500249A99193F35
:1038D0008CB50108AC050024F8B5010864B60108F0
:1038E000D0B601083CB70108A8B7010814B8010810
:1038F00080B80108ECB8010858B90108B8050024DF
:1039000090B40108FDF7E4FA56F80C0D002800F019
:103910006B87B168091A14F0A0FDA642F4D1002308
:1039200000220DF59361DFF82CC4CDF8A0340023FC
:103930002E46C1E90023BCE80F000FC6BCE80F000B
:103940000FC6DCF800302420336014F088FDAE464A
:1039500000F124080646CDF89804CDF8A084F4467A
:1039600010360EF1100EBCE80F00BC4546F8100CE6
:1039700046F80C1C46F8082C46F8043CEFD1DEF85B
:1039800000000DF2A4420DF593613060DC48CDF8E3
:103990009C84FDF79DFADDF8980420B1DDF8A014B1
:1039A000091A14F05AFDD74B0DF20C522946D6488D
:1039B0002B604FF00008FDF7EBF86C22D3490DF5B2
:1039C000936015F0B7F9002300220DF58561CDF85D
:1039D00030846C20C1E9002314F041FD06466C22BE
:1039E0000DF593616C36CDF82804CDF8306415F0F0
:1039F000A1F96C22C6492846CDF82C6415F09AF935
:103A00006C20CDF83484CDF83884CDF83C8414F0A3
:103A100026FD06466C222946CDF834046C36CDF8D6
:103A20003C6415F087F9BB480DF588620DF585619A
:103A3000CDF83864FDF74CFADDF8340420B1DDF838
:103A40003C14091A14F009FDDDF8280420B1DDF852
:103A50003014091A14F001FDAF4B2846AF4AB049A3
:103A6000DA636C2215F066F9002300220DF59361EC
:103A7000CDF8A03400236C20C1E9002314F0EFFC42
:103A800006466C2229466C36CDF89804CDF8A06421
:103A900015F050F9A3480DF2A4420DF59361CDF84D
:103AA0009C64FDF715FADDF8980420B1DDF8A01448
:103AB000091A14F0D2FC4FF000084FF0000A4FF042
:103AC000000B6C22984968A815F034F9C4F80880F6
:103AD0006C2067AECDE94CAB14F0C1FC00F16C0971
:103AE0006C2268A9C4F80890206015F023F96C22B4
:103AF0008E4983A8C4F8049015F01CF9C4F814800A
:103B00006C20C4E9038814F0AAFC00F16C096C2253
:103B100083A9C4F81490E06015F00CF96C22844974
:103B20009EA8C4F8109015F005F96C20CDE952ABB1
:103B3000C4F8208014F093FC00F16C096C229EA95B
:103B4000C4F82090A06115F0F5F86C227949B9A865
:103B5000C4F81C9015F0EEF8C4F82C806C20C4E971
:103B6000098814F07CFC00F16C096C22B9A9C4F836
:103B70002C90606215F0DEF86C226F49D4A8C4F86E
:103B8000289015F0D7F86C20CDE958ABC4F83880F0
:103B900014F065FC00F16C096C22D4A9C4F83890CB
:103BA000206315F0C7F86C226449EFA8C4F834907C
:103BB00015F0C0F8C4F844806C20C4E90F8814F0F4
:103BC0004EFC00F16C096C22EFA9C4F84490E0634C
:103BD00015F0B0F86C225A490DF58560C4F8409094
:103BE00015F0A8F86C20CDE95EABC4F8508014F055
:103BF00036FC00F16C096C220DF58561C4F850901B
:103C0000A06415F097F86C224E490DF59360C4F846
:103C10004C9015F08FF8C4F85C806C20C4E91588CE
:103C200014F01DFC00F16C096C220DF593616065C8
:103C3000C4F85C9015F07EF86C2243492846C4F81D
:103C4000589015F077F86C20CDE964ABC4F8688023
:103C500014F005FC00F16C086C2229462066C4F8BB
:103C6000688015F067F8324621463848C4F8648009
:103C7000FDF72EF956F80C0D002800F0BA85B16852
:103C8000091A14F0EAFBA642F4D1002300220DF534
:103C90009361DFF8C4C0CDF8A03400232E46C1E9FB
:103CA0000023BCE80F000FC6BCE80F000FC6DCF80D
:103CB00000302420336014F0D2FBAE4600F124081B
:103CC0000646CDF89804CDF8A084F44610360EF1DF
:103CD000100EBCE80F00BC4546F8100C46F80C1C52
:103CE00046F8082C46F8043CEFD1DEF800000DF24F
:103CF000A4420DF5936130601548CDF89C842DE009
:103D0000C40500248D1787BED0050024E8B901083A
:103D100054BA0108DC050024AC0500249A99D93F67
:103D2000C0BA0108EC0500242CBB010898BB0108AF
:103D300004BC010870BC0108DCBC010848BD0108D6
:103D4000B4BD010820BE01088CBE0108F80500249E
:103D500004060024C4B90108F8BE0108FDF7B8F84C
:103D6000DDF8980420B1DDF8A014091A14F075FBF1
:103D7000DD4B0DF20C522946DC482B604FF0000859
:103D8000FCF706FF6C22DA490DF5936014F0D2FFC0
:103D9000002300220DF58561CDF830846C20C1E947
:103DA000002314F05CFB06466C220DF593616C3623
:103DB000CDF82804CDF8306414F0BCFF6C22CD4956
:103DC0002846CDF82C6414F0B5FF6C20CDF834846F
:103DD000CDF83884CDF83C8414F041FB06466C22C3
:103DE0002946CDF834046C36CDF83C6414F0A2FFBB
:103DF000C1480DF588620DF58561CDF83864FDF791
:103E000067F8DDF8340420B1DDF83C14091A14F029
:103E100024FBDDF8280420B1DDF83014091A14F071
:103E20001CFBB64B2846B64AB649DA636C2214F03E
:103E300081FF002300220DF59361CDF8A03400230B
:103E40006C20C1E9002314F00AFB06466C222946C7
:103E50006C36CDF89804CDF8A06414F06BFFAA4836
:103E60000DF2A4420DF59361CDF89C64FDF730F896
:103E7000DDF8980420B1DDF8A014091A14F0EDFA69
:103E80004FF000084FF0000A4FF0000B6C229F49E2
:103E900068A814F04FFFC4F808806C2067AECDE925
:103EA0004CAB14F0DCFA00F16C096C2268A9C4F880
:103EB0000890206014F03EFF6C22954983A8C4F856
:103EC000049014F037FFC4F814806C20C4E9038810
:103ED00014F0C5FA00F16C096C2283A9C4F814909F
:103EE000E06014F027FF6C228A499EA8C4F8109065
:103EF00014F020FF6C20CDE952ABC4F8208014F000
:103F0000AEFA00F16C096C229EA9C4F82090A06161
:103F100014F010FF6C228049B9A8C4F81C9014F06A
:103F200009FFC4F82C806C20C4E9098814F097FAC2
:103F300000F16C096C22B9A9C4F82C90606214F0ED
:103F4000F9FE6C227549D4A8C4F8289014F0F2FE4A
:103F50006C20CDE958ABC4F8388014F080FA00F139
:103F60006C096C22D4A9C4F83890206314F0E2FEE6
:103F70006C226B49EFA8C4F8349014F0DBFEC4F84F
:103F800044806C20C4E90F8814F069FA00F16C09D0
:103F90006C22EFA9C4F84490E06314F0CBFE6C22CD
:103FA00060490DF58560C4F8409014F0C3FE6C20A4
:103FB000CDE95EABC4F8508014F051FA00F16C0901
:103FC0006C220DF58561C4F85090A06414F0B2FE27
:103FD0006C2255490DF59360C4F84C9014F0AAFE7C
:103FE000C4F85C806C20C4E9158814F038FA00F13C
:103FF0006C096C220DF593616065C4F85C9014F057
:1040000099FE6C2249492846C4F8589014F092FE53
:104010006C20CDE964ABC4F8688014F020FA00F19C
:104020006C086C2229462066C4F8688014F082FE71
:10403000324621463E48C4F86480FCF749FF56F8F2
:104040000C0D002800F0F883B168091A14F005FA85
:10405000A642F4D1002300220DF59361DFF8DCC005
:10406000CDF8A03400232E46C1E90023BCE80F00A0
:104070000FC6BCE80F000FC6DCF800302420336008
:1040800014F0EDF9AE4600F124080646CDF8980488
:10409000CDF8A084F44610360EF1100EBCE80F00E7
:1040A000BC4546F8100C46F80C1C46F8082C46F89F
:1040B000043CEFD1DEF800000DF2A4420DF593614F
:1040C00030601C48CDF89C84FCF702FFDDF89804B2
:1040D00020B1DDF8A014091A14F0BFF9164B0DF247
:1040E0000C5229462CE000BF4E88CABE10060024A0
:1040F0001CBF010888BF01081C060024EC05002431
:10410000CDCC4C3FF4BF01082C06002460C0010850
:10411000CCC0010838C10108A4C1010810C20108BF
:104120007CC20108E8C2010854C30108C0C30108E9
:1041300038060024440600242856063E2CC40108F4
:10414000D3482B600027FCF723FD6C22D1490DF5E5
:10415000936014F0EFFD002300220DF58561CDF88A
:1041600030746C20C1E9002314F079F906466C2202
:104170000DF593616C36CDF82804CDF8306414F059
:10418000D9FD6C22C4492846CDF82C6414F0D2FD28
:104190006C20CDF83474CDF83874CDF83C7414F03C
:1041A0005EF906466C222946CDF834046C36CDF80B
:1041B0003C6414F0BFFDB9480DF588620DF58561CA
:1041C000CDF83864FCF784FEDDF8340420B1DDF866
:1041D0003C14091A14F041F9DDF8280420B1DDF887
:1041E0003014091A14F039F9AD4B2846AD4AAE49DE
:1041F000DA636C2214F09EFD002300220DF593611A
:10420000CDF8A03400236C20C1E9002314F027F975
:1042100006466C2229466C36CDF89804CDF8A06489
:1042200014F088FDA1480DF2A4420DF59361CDF87C
:104230009C64FCF74DFEDDF8980420B1DDF8A01475
:10424000091A14F00AF900274FF0000A4FF0000B8A
:104250006C22974968A814F06DFDA7606C2067AECA
:10426000CDE94CAB14F0FBF800F16C0868A96C22A6
:10427000C4F80880206014F05DFD6C228D4983A88D
:10428000C4F8048014F056FD67616C20C4E903771C
:1042900014F0E5F800F16C0883A96C22C4F81480CE
:1042A000E06014F047FD6C2283499EA8C4F810809A
:1042B00014F040FD6C20CDE952AB276214F0CFF82A
:1042C00000F16C089EA96C22C4F82080A06114F053
:1042D00031FD6C227949B9A8C4F81C8014F02AFD7C
:1042E000E7626C20C4E9097714F0B9F800F16C08B2
:1042F000B9A96C22C4F82C80606214F01BFD6C22FA
:104300006F49D4A8C4F8288014F014FD6C20CDE9BE
:1043100058ABA76314F0A3F800F16C08D4A96C2281
:10432000C4F83880206314F005FD6C226549EFA8BD
:10433000C4F8348014F0FEFC67646C20C4E90F7785
:1043400014F08DF800F16C08EFA96C22C4F84480D9
:10435000E06314F0EFFC6C225B490DF58560C4F856
:10436000408014F0E7FC6C20CDE95EAB276514F0CB
:1043700076F800F16C086C220DF58561C4F8508068
:10438000A06414F0D7FC6C2250490DF59360C4F87A
:104390004C8014F0CFFCE7656C20C4E9157714F06D
:1043A0005EF800F16C086C220DF593616065C4F84D
:1043B0005C8014F0BFFC6C2245492846C4F8588044
:1043C00014F0B8FC6C20CDE964ABA76614F047F894
:1043D00007466C2229466C372066A76614F0AAFCB3
:1043E000324621463B486766FCF772FD56F80C0DD5
:1043F000002800F02582B168091A14F02EF8A642B0
:10440000F4D100230DAF0022334E0C9300233C4621
:10441000CDE90A230FCE0FC40FCE0FC4336824207A
:10442000236014F01CF8BC4600F1240804460DF18A
:10443000540E0A90CDF83080664610340CF1100C02
:104440000FCE764544F8100C44F80C1C44F8082CA8
:1044500044F8043CF0D1DCF800002060CDF82C805A
:10446000DFF84880D8F81860D8F820309B1B0B2B59
:1044700000F2E5830C2013F0F2FF0023074683606F
:10448000C0E90033DDE90A10441A00F0C68525E0D2
:104490005006002450C40108BCC401085C06002476
:1044A0002C0600249A99193F28C501086C0600249F
:1044B00094C5010800C601086CC60108D8C60108E9
:1044C00044C70108B0C701081CC8010888C8010812
:1044D000F4C801087806002460C90108C74B9C4253
:1044E00000F29F85204613F0BAFF0346DDE90A106B
:1044F000461A1C448842BC60C7E9003304D0184601
:10450000324614F025FC0346334407F10C09D8E980
:1045100006467B60B4420CD02068002800F05A8226
:10452000A1680C34091A13F098FFB442F4D1D8F8FA
:1045300018602EB1D8F820103046891B13F08DFF7B
:10454000C8F82090C8E906790A9818B10C99091A98
:1045500013F083FFAA4B0DF20C522946A9482B6099
:104560000026FCF715FB6C22A7490DF5936014F0AB
:10457000E1FB002300220DF58561CDF830646C204D
:10458000C1E9002313F06BFF04460DF593616C2223
:104590006C34CDF82804CDF8304414F0CBFB6C22F9
:1045A0009A492846CDF82C4414F0C4FB6C20CDF871
:1045B0003464CDF83864CDF83C6413F050FF044601
:1045C0006C222946CDF834046C34CDF83C4414F008
:1045D000B1FB8F480DF588620DF58561CDF8384443
:1045E000FCF776FCDDF8340420B1DDF83C14091A40
:1045F00013F033FFDDF8280420B1DDF83014091A78
:1046000013F02BFF4FF07C5382492846C8F83C300A
:10461000FDF750FE80490DF5A960FDF74BFE7F497F
:104620000DF5B160DFF80C82FDF744FE7C490DF515
:10463000B960FDF73FFE7B490DF5C160FDF73AFE1D
:1046400079490DF5C960FDF735FE78490DF5D16062
:10465000FDF730FE76490DF5D960FDF72BFED8F851
:104660000060D8F808309B1BB3F5007F80F03482DF
:104670004FF400702E4613F0F2FE044600F5007A67
:1046800000902046403431464036FDF713FEA245E7
:10469000F7D1D8E900794F4500F0058140373E4613
:1046A00056E9044B5C450CD02068002800F081805E
:1046B000A1680C34091A13F0D0FEA345F4D156F8C2
:1046C00010BCBBF1000F06D056F8081C5846A1EBF1
:1046D0000B0113F0C2FE56F81C0C20B156F8141C46
:1046E000091A13F0BAFE56E90A4B5C450BD0206854
:1046F000002852D0A1680C34091A13F0AEFE5C45B4
:10470000F5D156F828BCBBF1000F06D056F8201C96
:104710005846A1EB0B0113F0A0FE56E90D4B5C458A
:104720000BD0206800283ED0A1680C34091A13F081
:1047300094FE5C45F5D156F834BCBBF1000F06D0B1
:1047400056F82C1C5846A1EB0B0113F086FE56E9D7
:10475000104B5C450AD02068C8B1A1680C34091A16
:1047600013F07BFE5C45F6D156F840BCBBF1000F60
:1047700000F0928056F8381C58464036A1EB0B01E9
:1047800013F06BFEB94500F08C80403788E70C349D
:10479000A345E0D156F840BCE8E70C34A345A6D1C8
:1047A00056F828BCAFE70C34A345BAD156F834BC50
:1047B000C3E70C34A3457FF477AF56F810BC80E70D
:1047C000A6427EF454A8FEF75DB8B0457EF4F8AA80
:1047D000FEF702BBA6427EF4D1ACFEF7DABCA642DD
:1047E0007EF4AFAEFEF7B8BEA6427FF48DA8FFF709
:1047F00096B8A6427FF43EAAFFF747BAFCFFFF7FB8
:10480000CED5383F9006002484C90108F0C90108BC
:104810009C060024AC040024EC0400242C05002495
:104820006C050024AC050024EC0500242C060024B3
:104830006C06002468100024A6427FF400AC09E452
:10484000A6427FF4D3ADDCE50C34A5427DF41BAF6A
:10485000D8F80050FDF724BF0C36B2457EF429A9E4
:104860009C4BD3F800A0FEF732B95B4408F10C086A
:104870000AF10C0A48F8143C009B43457EF42AAA2E
:10488000FEF776BA08F10C08C1457EF476AA914B82
:10489000D3F80C90FEF782BAB94506F140067FF4D2
:1048A00074AFD8F80090B9F1000F06D0D8F808100E
:1048B0004846A1EB090113F0D0FD009BC8F808A001
:1048C000C8E9003A0DF5E166A6F1400756E904088B
:1048D000404504460BD02068002875D0A1680C34F0
:1048E000091A13F0BAFDA045F5D156F8100C20B105
:1048F00056F8081C091A13F0B0FD56F81C0C20B12C
:1049000056F8141C091A13F0A8FD56E90A08404588
:1049100004460BD02068002850D0A1680C34091A36
:1049200013F09BFDA045F5D156F8280C20B156F8A0
:10493000201C091A13F091FD56E90D084045044664
:104940000AD02068A0B3A1680C34091A13F085FDC1
:10495000A045F6D156F8340C20B156F82C1C091A93
:1049600013F07BFD56E91008404504460AD0206844
:10497000C0B1A1680C34091A13F06FFDA045F6D13F
:1049800056F8400C40B156F8381C091A13F065FD72
:10499000BD4203D03E4697E7BD42FBD10DF20C7DF0
:1049A000BDE8F08F0C34A045E1D156F8400CE9E7A2
:1049B0000C34A045C5D156F8340CCDE70C34A045D5
:1049C000A8D156F8280CB1E70C34A04583D156F88D
:1049D000100C8CE70C34A6427FF49EADD8F818601A
:1049E000A7E5CB464B46FEF7ABB93A4BD3F804905C
:1049F000A9EB06030B2B40F2428106A93046FCF7D7
:104A000043F8344B06F10C08D3F80490C1453EF44A
:104A10006DA846463068002800F0EB82B1680C367D
:104A2000091A13F01AFD4E45F4D12A4BC3F804803D
:104A3000FEF75CB8D8F804703B1B0B2B40F270817A
:104A400002A92046FCF720F804F10C05D8F8046010
:104A5000AE423DF430AE2C462068002800F0C482FF
:104A6000A1680C34091A13F0F8FCA642F4D1C8F876
:104A70000450FDF720BE174BD3F810A0AAEB080393
:104A80006B2B40F29B8108F16C09B246404608F15D
:104A90000C0851460AF10C0AFBF7F6FFC845F5D1A0
:104AA0000C4BD3F810A0CA453EF488A9C846D8F8E4
:104AB0000000002800F0A282D8F8081008F10C08C5
:104AC000091A13F0CAFCD045F1D1024BC3F810907B
:104AD000FEF774B9EC040024D8F80440A31BB3F526
:104AE000007FC0F01A8206F5007934462F46204632
:104AF0003946FCF70BFB04F10C0007F10C01FCF745
:104B000005FB04F1180007F11801FCF7FFFA04F1A6
:104B1000240007F12401FBF7B7FF04F13000403413
:104B200007F13001FCF7F2FAFB6BA14507F14007F2
:104B300044F8043CDBD1D8F804A0D1453FF4C2AE20
:104B400006F510764F4656E9044B5C450CD02068BC
:104B5000002800F03582A1680C34091A13F07DFC9E
:104B60005C45F4D156F810BCBBF1000F06D056F8E6
:104B7000081C5846A1EB0B0113F06FFC56F81C0CF7
:104B800020B156F8141C091A13F067FC56E90A4BB9
:104B90005C450CD02068002800F01982A1680C3414
:104BA000091A13F05AFC5C45F4D156F828BCBBF145
:104BB000000F06D056F8201C5846A1EB0B0113F04D
:104BC0004CFC56E90D4B5C450CD02068002800F0E9
:104BD000EA81A1680C34091A13F03FFCA345F4D113
:104BE00056F834BCBBF1000F06D056F82C1C5846C2
:104BF000A1EB0B0113F031FC56E9104B5C450CD0D6
:104C00002068002800F0CA81A1680C34091A13F04A
:104C100024FCA345F4D156F840BC4037BBF1000F4B
:104C200000F0DC8156F8381C58464036A1EB0B01E9
:104C300013F013FC574586D1C8F8049042E6D8F823
:104C40001CA0AAEB06030B2B40F21B8130460AA9DD
:104C5000FBF71AFF0C36D8F81C70B7423FF474AC5F
:104C600034462068002800F0CF81A1680C34091A6E
:104C700013F0F3FBBC42F4D1C8F81C6064E406AA4C
:104C800002EB030A33B1304606A9FBF7FDFEC94B20
:104C9000D3F8049009AB9A4531D00AF10C0A09F116
:104CA0000C060022D346B1465AE9031346E9032213
:104CB000B3EB010846F8042C30D0BF4B984500F206
:104CC000B081404613F0CBFB034603EB080246E9F4
:104CD000033346F8042C5AE903129142A2EB01086F
:104CE00012D01846424614F033F803460AF10C0A73
:104CF0000C36434446F8143C09AB9B45D1D1AD4B2F
:104D0000C3F80490FDF7F2BE43440AF10C0A0C36D6
:104D100046F8143C09AB9B45C3D1F0E74346D4E7C2
:104D200002AA02EB030A2BB1204602A9FBF7ACFE54
:104D3000D8F804700DF11409CA452FD00AF10C0AF5
:104D400007F10C040023564627465AE9032544E997
:104D50000333AD1A44F8043C2ED0974B9D4200F229
:104D60006081284613F07BFB03461D4444E903336E
:104D700044F8045C5AE903129142A2EB010511D0F8
:104D800018462A4613F0E4FF03464E450AF10C0A82
:104D90002B4404F10C0444F8143CD3D1C8F804703B
:104DA000FDF789BC2B444E450AF10C0A04F10C04B2
:104DB00044F8143CC6D1F1E72B46D6E74FEAA309E5
:104DC0007E4A06EB030B02FB09F973B1B24651466A
:104DD0004046FBF759FEB9F101090AF10C0A08F146
:104DE0000C08F4D1734BD3F810A031AB9B4536D0EF
:104DF0000BF10C0B0AF10C080023D946CDF800800A
:104E00005BE9032148E90333B1EB020A48F8043CAB
:104E100035D0694B9A4500F20481504613F01FFBD0
:104E2000034603EB0A0248E9033348F8042C5BE924
:104E300003108142A0EB010216D01846019213F034
:104E400087FF019A03460BF10C0B08F10C08134481
:104E500048F8143C31AB9945CED1DDF800A0554B54
:104E6000C3F810A0FDF7AABF13440BF10C0B08F117
:104E70000C0848F8143C31AB9945BDD1EDE75346D9
:104E8000CFE70AAA02EB030B2BB130460AA9FBF7C6
:104E9000FBFDD8F81CA0BB452FD00BF10C0B0AF181
:104EA0000C040023D946A2465BE9032644E90333F8
:104EB000B61A44F8043C2ED03F4B9E4200F2B1801B
:104EC000304613F0CCFA03461E4444E9033344F859
:104ED000046C5BE903129142A2EB010611D0184663
:104EE000324613F035FF0346B9450BF10C0B334442
:104EF00004F10C0444F8143CD3D1C8F81CA0FFF70B
:104F000023BB3344B9450BF10C0B04F10C0444F8FA
:104F1000143CC6D1F1E73346D6E7EF184FEAA319A0
:104F20008BB32C4621463046FCF7F0F804F10C0117
:104F300006F10C00FCF7EAF804F1180106F118007C
:104F4000FCF7E4F804F1240106F12400FBF79CFDD2
:104F500004F13001403406F13000FCF7D7F8403658
:104F600054F8043CB9F1010946F8043CDAD10DF5D6
:104F7000E163D8F804409F4209D0394620464037C3
:104F80004034FDF797F90DF5E1639F42F5D1C8F87C
:104F9000044097E425462346FDF762BB0C34A34545
:104FA0007FF42EAE37E60C34A3457FF40EAE56F8F0
:104FB00034BC17E6EC040024FCFFFF7FABAAAAAACE
:104FC0000C34A3457FF4C3AD56F810BCCCE50C34CB
:104FD000A3457FF4DFAD56F828BCE8E5BA4506F1F5
:104FE00040067FF4B0AD27E60C34A6427FF434AD22
:104FF0003DE50C36B1457FF40DAD16E508F10C0822
:10500000C2457FF454AD60E50C34A7427FF429AE6D
:1050100032E6B1463346FDF736BD26462346FFF756
:1050200068BA13F02DFA00BF1E4B00201E4A002163
:105030001B68F0B503EB4303166885B0002206EB4E
:1050400083059F006C68F3590292E41ACDE90001D0
:1050500023D0164B9C4222D8204613F000FA034678
:105060001C440294CDE90033F15968688142A0EBF9
:10507000010404D01846224613F06AFE0346234476
:105080000B486946019301F01FFC009818B1029982
:10509000091A13F0E2F905B0F0BD2346E0E713F07A
:1050A000EFF900BFA409002418090024FCFFFF7FCA
:1050B00070090024C8480121C84AC94B70B5066868
:1050C000116000211B68B201C64C03EB86169B5889
:1050D0001A6804F5C0731068C4F89000506AA0669E
:1050E000906CC4F8B8005068C4F89400906AE06608
:1050F000D06CC4F8BC009068C4F89800D06A2067EF
:10510000106DC4F8C000D068C4F89C00106B6067D4
:10511000506DC4F8C4001069C4F8A000506BA067BB
:10512000906DC4F8C8005069C4F8A400906BE067A3
:10513000D06DC4F8CC009069C4F8A800D06BC4F856
:105140008000106EC4F8D000D069C4F8AC00106CB8
:10515000C4F88400506EC4F8D400106AC4F8B000DB
:10516000506CC4F88800906EC4F8D8001068C4F879
:105170000801506AC4F83001906CC4F858015068B6
:10518000C4F80C01906AC4F83401D06CC4F85C0116
:105190009068C4F81001D06AC4F83801106DC4F8E2
:1051A0006001D068C4F81401106BC4F83C01506D64
:1051B000C4F864011069C4F81801506BC4F84001C8
:1051C000906DC4F868015069C4F81C01906BC4F874
:1051D0004401D06DC4F86C019069F568C4F82001F1
:1051E000D06BC4F84801106EC4F87001D069C4F8DF
:1051F0002401106CC4F84C01506EC4F87401106A9C
:10520000C4F82801506CC4F85001926EC4F878219B
:1052100055F82120033110681B2943F8040B506A0C
:10522000C3F84401906CC3F88C0250681862906A0D
:10523000C3F86801D06CC3F8B00290685864D06AB3
:10524000C3F88C01106DC3F8D402D0689866106B57
:10525000C3F8B001506DC3F8F8021069C3F88C00B0
:10526000506BC3F8D401906DC3F81C035069C3F8A8
:10527000B000906BC3F8F801D06DC3F8400390699B
:10528000C3F8D400D06BC3F81C02106EC3F86403DB
:10529000D069C3F8F800106CC3F84002506EC3F830
:1052A0008803106AC3F81C01506CC3F86402926E44
:1052B000C3F8AC23ACD1336B24224B4800211D68CA
:1052C000DB6895ED007AD3ED007A77EE877AC0ED52
:1052D000007A95ED097AD3ED097A77EE877AC0EDF9
:1052E0000A7AD5F848C0C0F850C0D3F848C0C0F812
:1052F00078C095ED017AD3ED017A77EE877AC0ED2B
:10530000017A95ED0A7AD3ED0A7A77EE877AC0EDC5
:105310000B7AD5F84CC0C0F854C0D3F84CC0C0F8D4
:105320007CC095ED027AD3ED027A77EE877AC0EDF4
:10533000027A93ED0B7AD5ED0B7A77EE877AC0ED92
:105340000C7AD5F850C0C0F858C0D3F850C0C0F897
:1053500080C093ED037AD5ED037A77EE877AC0EDBE
:10536000037A93ED0C7AD5ED0C7A77EE877AC0ED5F
:105370000D7AD5F854C0C0F85CC0D3F854C0C0F85A
:1053800084C093ED047AD5ED047A77EE877AC0ED88
:10539000047A93ED0D7AD5ED0D7A77EE877AC0ED2C
:1053A0000E7AD5F858C0C0F860C0D3F858C0C0F81D
:1053B00088C093ED057AD5ED057A77EE877AC0ED52
:1053C000057A95ED0E7AD3ED0E7A77EE877AC0EDF9
:1053D0000F7AD5F85CC009E0641000246010002446
:1053E00068100024B0090024080F0024C0F864C02D
:1053F000D3F85CC0C0F88CC093ED067AD5ED067A80
:1054000077EE877AC0ED067A95ED0F7AD3ED0F7AB5
:1054100077EE877AC0ED107AD5F860C0C0F868C022
:10542000D3F860C0C0F890C095ED077AD3ED077A45
:1054300077EE877AC0ED077A93ED107AD5ED107A82
:1054400077EE877AC0ED117AD5F864C0C0F86CC0E9
:10545000D3F864C0C0F894C093ED087AD5ED087A0B
:1054600077EE877AC0ED087A93ED117AD5ED117A4F
:1054700077EE877AC0ED127AAD6E05679B6EC0F845
:105480009830A0F5A360B3691B681D68A5615D68CD
:10549000E5619D682562DD6865621D69A5625D69DB
:1054A000E5629D692563DD6965631B6AA363736AB1
:1054B0001B68636113F066FC014BF26B1A6070BDF0
:1054C000741000242DE9F04F0021BB484FF0000B71
:1054D0004FF07C54DFF850A3B84EB94F2DED028B3E
:1054E0008DB0B7EE008A00F0F7FE4FF48071B2483D
:1054F00000F078FE0321B04800F086FEAE4800F0D0
:1055000095FE8DED010AFFF78FFDFDF76DF8AD4AB1
:1055100005231360AC4B83ED008AAC4BC3F800B09D
:10552000FFF7C8FDAA4B9DED010AAA481C6012F0C6
:105530003DFF9DED010AA84812F0EEFE9DED010A27
:10554000A64812F057FEA64BF0EE040A9FEDA50AFE
:105550001C6004ACBAE80F000FC49AE80F0084E89E
:105560000F005A4604A9A048AAF1500502F090FE87
:105570000AF1100C0DF1100EF0EE480A9FED9B0A97
:10558000BCE80F00AEE80F009CE80F0084E80F00B5
:105590005A4604A9964802F07BFE0AF1300C0DF140
:1055A000100EF0EE480A9FED910ABCE80F00AEE83D
:1055B0000F009CE80F0084E80F005A4604A98D48AC
:1055C00002F066FE0AF1500C0DF1100EF0EE480AE2
:1055D0009FED860ABCE80F00AEE80F009CE80F00C4
:1055E00084E80F0004A90322834802F051FE0AF167
:1055F000700C0DF1100EF0EE480A9FED7C0ABCE82D
:105600000F00AEE80F009CE80F0084E80F005A4638
:1056100004A97A4802F03CFE0AF1900C0DF1100E3C
:10562000F0EE480A9FED710ABCE80F00AEE80F00EB
:105630009CE80F0084E80F005A4604A9704802F065
:1056400027FE172001F0DCF9ADF80C0003995A464B
:105650009FED6C0A6C4802F023FD284600F0E8FD3F
:1056600028466A4900F0BCFD7DE0A0F10104B4FACF
:1056700084F464093368A3423ED03B680021644A45
:10568000002003EB4309D2F800A00AEB890B5AF87B
:105690002920DBF80430CDE90401B3EB02084FF018
:1056A0000001069100F084805A4B984500F28280F8
:1056B000404612F0D4FE034603EB0802CDE9043362
:1056C00006925AF82910DBF804008142A0EB010889
:1056D00004D01846424613F03BFB034643444E4871
:1056E00004A9059301F0F0F8049818B10699091A75
:1056F00012F0B3FE3C60346001212F4800F028FE18
:1057000000284FD0012815BF4FF001084FF00208C4
:105710004FF002094FF0030914BF002401240221B5
:10572000254800F015FE00283AD0012808BF44465D
:105730003A4B1A68A24204D01C60224B1C60FFF74F
:10574000B9FC374BF7EE007A9FED280A1B782E48FC
:10575000002B07FE800A02F0C7FC2B4802F0D6FCA3
:10576000154800F021FE0A21134800F037FD1248C9
:1057700000F062FD104800F02BFF95F8743133B152
:1057800095F87A317F2B02D1264B01221A70002125
:10579000094800F0DDFD00287FF467AF022469E7C7
:1057A0004C46C5E74FF003084FF004090224B6E762
:1057B000434681E712F064FE780700247810002445
:1057C000A409002464100024741000241409002487
:1057D000AC0900247C10002498100024AC0600249E
:1057E000B0100024CDCCCC3D040400240000000007
:1057F000740400243C0400243C0700240007002417
:10580000C806002400007A44540900242913000823
:1058100018090024FCFFFF7F70090024A809002458
:105820000400002474070024B807002470B5D1E9EF
:10583000002500230E46AD1A04468360C0E90033FC
:1058400019D00F4B9D4218D8284612F008FE034687
:105850001D44C4E90033A560D6E900108842A0EBDE
:10586000010504D018462A4613F072FA03462B4469
:105870002046636070BD2B46EAE712F001FE00BFD0
:10588000FCFFFF7F2DE9F04DC8480024ADF5C86D41
:10589000C74AC8494FF0000A84636E46DFF8AC83FC
:1058A0004FF0000BC44FC54DC0E90044C0E90244AD
:1058B000C0E90444C0E90644C0E90844C0E90A4418
:1058C000C0E90C4412F0C4FDBD48B94AB94984632B
:1058D000C0E90044C0E90244C0E90444C0E9064408
:1058E000C0E90844C0E90A44C0E90C4412F0B0FD24
:1058F000B448AF4AAF498463C0E90044C0E90244F8
:10590000C0E90444C0E90644C0E90844C0E90A44C7
:10591000C0E90C4412F09CFDAB48A54AA54984633C
:10592000C0E90044C0E90244C0E90444C0E90644B7
:10593000C0E90844C0E90A44C0E90C4412F088FDFB
:10594000A2489B4A9B498463C0E90044C0E90244E1
:10595000C0E90444C0E90644C0E90844C0E90A4477
:10596000C0E90C4412F074FD9948914A914984634E
:10597000C0E90044C0E90244C0E90444C0E9064467
:10598000C0E90844C0E90A44C0E90C4412F060FDD3
:105990009048874A87498463C0E90044C0E90244CB
:1059A000C0E90444C0E90644C0E90844C0E90A4427
:1059B000C0E90C4412F04CFD87487D4A7D49846360
:1059C000C0E90044C0E90244C0E90444C0E9064417
:1059D000C0E90844C0E90A44C0E90C4412F038FDAB
:1059E0007E48734A7E498460C0E9004412F030FD6D
:1059F0004FF4C8627B49304613F09CF94046C8F822
:105A000008400DF5C8623146C8E900ABFBF79CF8C9
:105A1000674A7549404612F01BFD4FF4C86273494E
:105A2000304613F087F93846BC600DF5C862314640
:105A3000C7E900ABFBF788F85D4A6B49384612F0BE
:105A400007FD4FF4C8626A49304613F073F92846DF
:105A5000AC600DF5C8623146C5E900ABFBF774F8E0
:105A6000534A6149284612F0F3FC41463046DFF8BC
:105A70008881FFF7DBFE394603A8FFF7D7FE2946EA
:105A800006A83546FFF7D2FEC8F808402420C8E92A
:105A9000004412F0E4FC00F124070446C8F80000BA
:105AA000C8F8087020460C3429460C35FFF7BEFEB6
:105AB000A742F7D109ACC8F8047054F80C3D184659
:105AC000002B00F08183A168C91A12F0C6FCB44211
:105AD000F3D1374A002647490025474812F0B8FC61
